:100000000C94E94B0C941A4D0C940F4C0C940F4C1F
:100010000C940F4C0C940F4C0C940F4C0C94665E8B
:100020000C940F4C0C94A65D0C940F4C0C940F4C3C
:100030000C940F4C0C941A590C940F4C0C940F4CBC
:100040000C940F4C0C940F4C0C940F4C0C940F4CC4
:100050000C940F4C0C940F4C0C940F4C0C940F4CB4
:100060000C940F4C0C940F4C0C940F4C0C940F4CA4
:10007000090212000101008096090400000000003E
:10008000000012011001FF000008C016DD0500018C
:1000900001020001160351005500490043004B00C6
:1000A0004400450056003100360016036F00700012
:1000B00074006900780078002E006F0072006700FD
:1000C000040309045553425F42554C4B5F55504C55
:1000D0004F41445F494E49543A2025692025690A19
:1000E000005553425F42554C4B5F55504C4F414475
:1000F0005F494E49543A2062616E6B5F73697A655D
:100100003D30782530386C782062616E6B5F636EAD
:10011000743D3078257820656E645F616464723D5B
:1001200030782530386C780A005553425F42554C80
:100130004B5F55504C4F41445F414444523A20720A
:1001400065715F62616E6B3D307825303278206179
:100150006464723D30782530386C782074696D6540
:100160003D25690A005553425F42554C4B5F55503F
:100170004C4F41445F4E4558543A207265715F625E
:10018000616E6B3D30782530327820616464723D59
:1001900030782530386C782074696D653D25690AA2
:1001A000005553425F42554C4B5F55504C4F4144B4
:1001B0005F454E443A0A005553425F4352433A204A
:1001C000616464723D30782530386C78200A0055BF
:1001D00053425F4D4F44455F4156523A0A005553D2
:1001E000425F4D4F44455F534E45533A0A005553C5
:1001F000425F4156525F52455345543A0A005553A7
:10020000425F5345545F4C414F4445523A0A0055B2
:10021000534220706F6C6C0A00506F6C6C20555309
:10022000420A002D2D3E53776974636820544F2095
:100230004156520A004552524F523A757362467502
:100240006E6374696F6E5772697465206D6F726545
:100250002064617461207468616E206578706563E4
:100260007465642072656D61696E3A202569206C41
:10027000656E3A2025690A0075736246756E63746F
:10028000696F6E5772697465205245515F535441CE
:100290005455535F42554C4B5F55504C4F41442091
:1002A000616464723A2030782530386C78206C654F
:1002B0006E3A2025692072785F72656D61696E699A
:1002C0006E673D25690A0075736246756E637469D1
:1002D0006F6E52656164206C656E3D25692074788F
:1002E0005F72656D61696E696E673D2569200A0000
:1002F000737265675F7365743A20616464723D3040
:10030000782530386C7800310030000A0073726153
:100310006D5F62756C6B5F616464725F736176655B
:100320003A20616464723D30782530386C780A0D6B
:10033000007372616D5F62756C6B5F777269746573
:100340005F73746172743A20616464723D30782521
:1003500030386C780A0D007372616D5F62756C6B7A
:100360005F616464725F726573746F72653A206175
:100370006464723D30782530386C780A0D007372F1
:10038000616D5F62756C6B5F726561645F737461F0
:1003900072743A20616464723D30782530386C782C
:1003A0000A0D007372616D5F62756C6B5F726561DF
:1003B000645F656E643A0A007372616D5F726561B5
:1003C000643A20616464723D30782530386C780A74
:1003D0000D007372616D5F62756C6B5F777269742B
:1003E000655F656E643A007372616D5F7772697400
:1003F000653A20616464723D30782530386C78202D
:10040000646174613D25780A0D007372616D5F62ED
:10041000756C6B5F636F70795F66726F6D5F62752D
:10042000666665723A20616464723D3078253038C2
:100430006C78207372633D30782570206C656E3D5A
:10044000256C690A0D007372616D5F62756C6B5F7C
:10045000636F70795F696E746F5F627566666572EF
:100460003A20616464723D30782530386C782064BD
:1004700073743D30782570206C656E3D256C690A7B
:100480000D007372616D5F62756C6B5F7365743ABA
:1004900020616464723D30782530386C78206C655A
:1004A0006E3D256C690A0D007372616D5F62756C3B
:1004B0006B5F7365743A20616464723D30782530F7
:1004C000386C780A0D006372635F636865636B5F05
:1004D00062756C6B5F6D656D6F72793A20626F74D7
:1004E000746F6D5F616464723D30782530386C786C
:1004F00020746F705F616464723D30782530386CB1
:10050000780A006372635F636865636B5F62756C32
:100510006B5F6D656D6F72793A2062616E6B3D3015
:10052000782530327820616464723D307825303827
:100530006C78206372633D3078253034780A00632C
:1005400072635F636865636B5F62756C6B5F6D653B
:100550006D6F72793A2062616E6B3D307825303272
:100560007820616464723D30782530386C7820637F
:1005700072633D3078253034780A002A0A0025302D
:10058000386C783A00202530327800207C002563D2
:10059000002E007C0A000A2530386C783A002025AD
:1005A000303278000A00F5D319755A5D48BA249D97
:1005B00097CE4A3F49DF4AC72487F489F4AEF49ABC
:1005C000F4B2F45F5299B44DDA243D22AD94164B47
:1005D000F3A47BA53BA4A992451A2FA549574B83A9
:1005E000A5FE522F492F692445EBD77AB5FFD19E3E
:1005F000D5FEACFD41FB8DB64A5BA13DA0FD50FB95
:100600008EF675ED2BDA17B5CF689FD4EED06ED687
:1006100016691FD51668976B17691FD2DEAFBD5BD1
:100620007BBB76BA769236433B5E3B5A3B527B9518
:1006300076B03659DB471BAFD56B252DD106357EFD
:100640004D93E60F4D83A656F3ABE627CDF79A6A96
:10065000CD579A2F34159A839AFD9A0F34EF6AFE7C
:10066000A9F987E615CD6ECDF39ABF68EC9AC73528
:10067000DB359B359B34EB358F68566972354B35CE
:100680008B34399AB99A399AD99A999A199A699A56
:10069000C91AAB264393AE19AB49D38CD4A4688650
:1006A0006B066B066AFA69FA681234719A188DA49F
:1006B0001134A0098A2D62B3D8245E14CF8BF56261
:1006C0009DE8167F114F893F8ADF8935E2D7E2978F
:1006D000E217E211D1211E143F153F16DF17F78AEA
:1006E0006F8B6F8AAF89AF8A7BC497C417C4E7C486
:1006F00067C4A7C427C527C41DE23671B3288B453C
:10070000E27A719DB8565C25E6892BC4A5E2C3E266
:100710004231479C273E28CE11EF11EF166789B76B
:100720008B33C4E9E2CDE264D12A668A3789378AFD
:10073000E3C431E268F13A71A478B538421C2E0E58
:1007400011CDE24071809824F61113C578D120C6EE
:100750008AD1A24ED48A8248442604855621205C40
:10076000167C42A3E011FE10CE0B0DC239A14E380B
:100770002BB8855F859F859F8413C20FC277C2B750
:1007800042B5705CF84AF852A8123E178E084EE146
:10079000B070503820EC173E113E123E10DE13F6BA
:1007A0000AEF086F096F0AAF0BFF105E155E11CAE2
:1007B000859785DDC20BC2F3C2B3C233C2D3C25325
:1007C000825D28139E101E137608DB85ADC266A1DC
:1007D0004490854DC246618350283C2AAC15D6080A
:1007E000AB847C214FC815960BCB8425C2626191E6
:1007F000B040C811B28579C25CE101618E709F7012
:100800008F305BB84B9825CC146E176E136E156E37
:1008100011A609538529C264214BB00899428670FC
:100820009370A3902E8C176E10C60AD70BA3855415
:10083000E13A61A470AD703572DC0861B8304C18D3
:10084000220C16CCC22061A03040E82FF413FA0A23
:100850007D84DE422F2141300A06214ED00B3142E9
:10086000B41025488256D0088240052230AAD01004
:100870000DD256DA4203D44F9BE925EAA34DD44B5F
:100880003DF422FD839EA7BFD3FFD0065A4F7FA31E
:1008900075B4969EA567A88BFE4A7FA1A7E9CFF401
:1008A000143D494FD01FE90FF47BFA1DFD1699B690
:1008B0009A7E438FD3AFE957F45FF44B5A45BFA0FC
:1008C0009FD34A7A941EA115D4491DF4303D443F6C
:1008D000A307E8A7743FFD847E4C3FA21FD20FE818
:1008E000FBF43DBA8FEEA5EFD277E8DBF42DFA4F9B
:1008F000FA267D83BE8EBCFD0FFA77FA2AFD1B7D9A
:1009000085EEA1E5F465FA12DD4D5FA42FD0BFD2CC
:10091000E7E973F459FA5FF419FA17FA347D8AEEAD
:10092000A276FA245A19DD499FA08FD3C7E80E5A40
:100930004AB7D36D742BDD82B69996A00AC8B498D5
:100940006EA2457423DA06BA9E16D275F451FA08DF
:100950005D8BB686AEA6AB6801CDA779682B692EF4
:100960005D4197D365684BE912FA305D4C17A12DB4
:10097000A40BE87C9A83964D1FA2F35057E6D2074A
:10098000E903F47E3A07ED3E7A2FBD076D36BD9B35
:10099000DE45EF449B4567D23BD06EA7B7D11968BF
:1009A000B7D25BE874B469742ABD196D0A9D4C27EF
:1009B000A165512B9A8566D2896819F426B409F489
:1009C000469A8E369E8E43BB818E451B43AFA7A3AE
:1009D000D1D2682ADA757414DA487A2DDA35F46AD5
:1009E000B4143A02ED2A3A1C6D181D8A36840E465C
:1009F000335313DA20B48134196D00AA617FDA8F82
:100A000026A1F545EB437BA325D25E680968F1D4A6
:100A10008866408BA3B1687AB4181A8D1685A6A390
:100A2000129A164D8326524C26CA0BA1C08D17214F
:100A30003179D8D8EC7C47C57B25D933470E4B4C50
:100A4000D44112A441315A1ABEE9AE50C9FF2DFF5C
:100A5000DF2AB7C128F39D8F2C5BB862D1E247CD66
:100A6000A3C799EFB97B927914A981298B173CB25E
:100A70006482F9F6F9CBF2602AB977D9A2C5F9E612
:100A80005BEEBA73CD043297689EA4C53855BC5A44
:100A900028E6D367CE9A7DCB9C39E6B58BD7ACEDF3
:100AA0003A35EB9145CBF2613BB979CEECC8CCDD60
:100AB0004463C7995F9061696913C6A4A5A591D3E2
:100AC00044837906CF10CD648177DC9ABFFEFA09A2
:100AD0009A29F8FE3DD1DC8C8D96E2A73113345370
:100AE000F13D916AA66133957F1A3B41331DDF6763
:100AF00053CD2DFC1399BD6CE5E285F98B164F2083
:100B00007388E6A1EC62402FE761C3FDBB63DDFCA7
:100B1000D505E629F397AD99BFE291358BF3BA3A43
:100B2000397BFE82DC65E8F75D387BF5A2C5AB71E9
:100B3000C3854BD73CB2D29CBFC2DCF1BE60FE2263
:100B4000C8219A32CA37D70038E156AA21D8DC81A9
:100B5000B0C2663BBDB970F1C247D62ECB5B62BE58
:100B6000730A0671F2ED53CCA3FFFCF3F5F0059D7B
:100B7000B53A7FC9EAC56BD64C3063194E4E51DD8C
:100B800033B8F476726F7E6EFE236B2790E789266A
:100B9000077DC7706563F3328FCA0D1334B7E24126
:100BA000DF269A19D8FCCA3F8D9BA0B90DDF2F1004
:100BB000CDEDD80C12F0D3F8099A3BF07DA4A099A2
:100BC00089CD43FC53FA04CD2C7CCF1534776223B6
:100BD00036A5344D6C9ADCB4A8695DD3634DBB9ADD
:100BE0007637BDDAB4B7E9E3A6234D5F369D6EAA2A
:100BF0006D4AF4997D237D637C137C59BEE9BE6CFC
:100C0000DFA3BE27BB58B9EF35DFFBBE4F7D9FFB8F
:100C1000BEF69DF4B97CE77D4DFF6BFF03CB6BFE09
:100C2000A1F9A3CB5AC108420CDC00B34090804C20
:100C3000478A25300086C32850E1350A41025330E7
:100C40004917E42E869BF37863C611C076D2629171
:100C50004016B4A3C67CDFEA656B1773F0CABD68A3
:100C6000B19EC05C983C3F77A179324F56D00A893B
:100C7000A08D87EB600A64C32638AEA2FCDF508CDF
:100C8000093B10EE29C8CD9FBF686441EEFCF5E634
:100C900035F9794B78DF4D89B458476002DCBD36B1
:100CA000BF20FC95EFDA9B164711F4F5EEC56BD526
:100CB0008FE635058B172FE2B261E8438BA309ACB1
:100CC00080BBF9E7854BE7E7E52DCE35AF9CBF66E6
:100CD000053F98D49716C710F82BBC09EFC367508F
:100CE000896DD8EE2E5888302BC85FBDD63C7B7DF1
:100CF000C162B8233F6F310700B4631730FFCD33B3
:100D00001F596B86DBF3179927AF5C64E6EEF1DDC4
:100D10006209FC04772D5EFBC8EA3CE0612412EF17
:100D2000614BD59E5EED3DC0FDEE28A44BD3F99DF1
:100D3000909EFDA4EBFFC83FD2D145A0E321E15630
:100D40003542FE276FFFCF2DF96FBE91EE4FFBFEB0
:100D500091B68BBB57D657B65D0FDE35045D23D6F3
:100D6000F31FFFCFE0BF291A2AEAB43A1D15452D1B
:100D70005654238952A4502AE924ECE245C2115A60
:100D80005E772D8246D0EA042D2F1AAD968A5AAA94
:100D9000E3EF229A96BF89B834C1893A11076B7480
:100DA000D8E082B8ACC88B46A715F9F21A2A618D33
:100DB00095A46E83FB69F8B2E13D2345ABEB592462
:100DC0007529BEA4BABD36DC08824694BA7EC0320C
:100DD000AE6566CBD2969296175A3E68F9BAE5B7D9
:100DE00016A505A2FA9021967104449D7E2846C05E
:100DF0001C8E9AC9240AF1F17BA000E616010C258D
:100E00000208460FEF880751E8D56B0F58E1FE0C3A
:100E1000DE3106C6843B7A6187319E8E060430C07F
:100E2000E42E33E2D519AFCC82B9B7F18E2E332040
:100E30002A1E60CC70023A63D264D2B13984F7B012
:100E4000FCD98C187CC62400D1F3CDBBCC68EF0054
:100E50003D9FD1B5A3331568786DB5D6A9751FB57B
:100E6000BE5EAD17A90353D481F7AAC990C06BE346
:100E7000305E9BA7F3DAFA2CAF4B9EE603176EC5E4
:100E80005A18B1146BED3DE3B873C6D5585F357889
:100E90000AD6774DDA8143C46D8FE25A51ABEEC268
:100EA0004DFB4DC67D75E9DB71DF3EEB56E3BE635E
:100EB000EE9982FB2E31EE580464ECE075294097E0
:100EC0004E9E7D2F68C69546258071CDDAA461308F
:100ED00078DAF471D32FB4CADA3679649B3CB14D19
:100EE0009EDC26DFD2262F6D93FBC5214DCC5FB44F
:100EF0007EA479FEBAF9CB544D5E9657F0C8DAEB72
:100F0000A09F11A6E4AFCBE3C4C8BFDE35F3F691D2
:100F1000E6358B17AFE07F96E294C5ABAFBB0E47CB
:100F2000456BE36DFD3FA5C5E638ACC870D03865AC
:100F300067EF588D9361DD2F01A6E63F92B7C8ACED
:100F40001780DC96AF2E11F71C0EBB7DC132BE435D
:100F500047B788BCBFAC67F7736DDD2D07CB2C2C72
:100F6000562C699CEFB118B1901E85F628428F224D
:100F7000F6289A1E45DBA3483DCA4DC1C9C119C117
:100F8000BB830F0617065704D7043706B7049F081C
:100F9000FE25F862F0D5A00DB3D580D9514A45B2EF
:100FA00091F056A3B676AA25F9E1D6C6DB2D542AD0
:100FB0004085029BA053FBB17D2A9BB7A027063E2C
:100FC0000F62E305FE9FC46D525B30180DC85036AA
:100FD0000E1B42B14D2069D8EE0DD6056F88E42571
:100FE000218621B6C47832D496D89B0CB3C51AE2B8
:100FF00087DB627BC55F658B314A236C3189528AFE
:101000002DDE9872B54D671C8ED9D59ECCC8A23600
:1010100023C0005BEFD8A1036C0363AE1F604B36A7
:10102000EA926DD1711C02A1EBFEDB326AE4B5D706
:101030005C9D32E2AAE1C3860E196C360D1A983C0B
:10104000A07FBFA4BE7D7A27F64A88371AE262F5F0
:1010500031D15148491A51A014B8912BE89500EDAF
:1010600066FFF723FE4F8B4E358ECDC17A217188F6
:1010700071E8B0C5E6EDC9AF99BF98F265CAB1B4E1
:101080006B47BF73CBF577AC79F8C175A2D72982CE
:10109000194C452B6EDEF7D09CFCFBD34C70DD70F9
:1010A000FBD5EB260CBABB389BAD6372CE08B730CC
:1010B000FA7680B747AFB983C9A622DDE0B21BD666
:1010C000DC612A8AD58D05133115D1B1D659EE4D83
:1010D0003C3F314B01E51CACFCC1509BF9830EEC4D
:1010E0000EC99D9515566B56F75E3D70F570F3CEA3
:1010F000EB4E87E49A8DF2D36B64F6BFE57F54EE36
:101100009C327A5C977FF7DC3279C6949BEF1D3D69
:10111000AECBC58FE6443D066E39FEF1F57C0C2260
:1011200048B53EF844FE7394D9083EFF17093CBC0D
:101130002000000100ECB5097C5355FA307CEE3DEF
:10114000D9BA26EC01DAE686B5654D81C1A0858461
:10115000566B4510DC661866C606D98A8AB4E06804
:10116000C5DAA4420095D02AFC15B435150992625F
:10117000A18E0B325813CA561068661C87C5A56924
:101180000BB4CAD25B0A346DD3DCEF39F7266DBAE3
:101190008EEFFFF7FEDEEFF7BDDFFF3C39E7DC9CAB
:1011A000E73CCB79565FF193B237AB197B76CABE79
:1011B000B2F85D086DFD3B5D4A2F56C4D86266E209
:1011C000C57172E41A38A724AA54BC388E43A1977B
:1011D0006445DE2B38B6E5EADA37942B1155740AEC
:1011E000C95C15FB620D010676548864BBF062662B
:1011F000D56438E5D95533A578B122A454B2F8B8EE
:10120000C8456BE1B083B406F0445644C711AB3512
:10121000287976662468644344709143E5359A29B9
:10122000906234E3428C0E526611B308954C2D4403
:101230001410E3C54576842E8158BB1199E9601AD4
:101240005428432DCC9DC9D54C315E1C62B2E0C5FB
:10125000FB62832594EE9C39274EAA5C290B8531CD
:10126000CC2C2A8B277CEF257C2FFD26C62DFC0B52
:10127000434C0578B14D5420E1D997971F93BA8616
:10128000AE332C5A2A29952E8E33A250B3B454462D
:101290004C688E2844E8203A8FD91F520EE2381548
:1012A0003287A5C1CA9CA5CCF283780E19FCE14116
:1012B00014F80614512D542C2737AEB5E3AF05B002
:1012C000D708EE5D745532F709EA78183B282F5499
:1012D0007B25224F7E3C2C2FCCA05C1651223E1E3B
:1012E0005642196C618645015D30E8003ABFAE4751
:1012F0006C0CAF8E59BC1B9797DBC4299B37933F6F
:1013000069EF222742AEFA7586DD98FC2FF47180D2
:101310002B2FF7E38E6117BBCE70A913BB83E82197
:10132000CEF82E82876357E3BA16431724D159DCCF
:10133000F126B334A0BF3944B94CAA5C26CE15259A
:1013400042A8D871AE2411FD2A8CB2F80303138190
:101350002C4578BE186493A78AFD528AC0BC293CEC
:10136000DFB4943837364BD3E25096396469583736
:10137000C9C0FE7537C762BB6038B80C325F577999
:10138000E1C48DC561FC19CA522E0B799D5B0F67B4
:10139000284B1CF62E5A1AC64BF9E6374BD15EF194
:1013A0004B41C8CFD38DB557FC72DACF5096F64A71
:1013B000400E0A92F335C8B924F0348BECD9106B87
:1013C000903124D8942BD760883522A4206C715D8D
:1013D0005D79F90991ABB1659D4156164FE209411E
:1013E0000E39448BB3E1FB38728538E8C5D90A0C55
:1013F0002128A4941B52AA2A566B08132588568AC2
:10140000FE286E1347490C927725F749A2441344EE
:10141000E1A262F1F7E281E2F3A2BDA243921CB124
:10142000A19AD9FF77BAF84BDA25B65305E2C5FE83
:10143000FF7B68B6CBFF00BE2C1EFEF3DA9AC59D7B
:10144000F405E9618BCD98F933A4AC4DE2C21FE0FD
:10145000E0CB9DAE9686F079814395CBF0A522C76F
:101460000F12C870C78F12630B6478CFE47DCB1264
:10147000DBE976D598D77107995DBE18529E8B62CD
:101480000EF7A0859DE318358608540413F770CF36
:101490001D05F77A790A0418300726D47F60D2E94F
:1014A0005E3593691799A37BE3593FF3B7F1E415D0
:1014B000FB0DF77AE727181231DABED1BFFF0DDA3C
:1014C0000897C2FAE011FCD7EE24BADB4FF66ABDEA
:1014D000C03DD0BD9737066E801B791E7C0C3C7DCD
:1014E000CEB83FD538DE67845CDBA547D6A1A9D945
:1014F000A74FBB3CF9FB686800247D8CB91FD3D98A
:1015000042EB82A8B653963D3429DFFB20633A7A3A
:101510002260F8AA2FF34E93C6325FCAA0B37D2192
:101520007B2D54165622FD51FA8BF48E143C98BF35
:1015300087067D98E552209A64B1D3F60D96227AFB
:10154000171A6657DEDC43C38F646BF14734948906
:10155000BD10880C140B3AD44C17EF2627A0356227
:10156000942B4D68970859D744670FABABDBECBAA7
:101570009BE2BFFE8672158D8AD24E20574D357381
:10158000F5C558C209842050B52C3E1644173F8D2E
:101590001562A6445A162FA0F2BFA4ED119DB17694
:1015A000DAC2EB070F6756CB883A805882E3287679
:1015B00070F13E1A7A5F9CCEB28FDE7B282A55519D
:1015C0000F174C8B0892E691DA5FBA226702CB388C
:1015D000133BBD2CFE937D7471316F1B18A44F1605
:1015E000BC37D38E220AF26702E650746ACAA1E1C0
:1015F000A9BCE50EA9C8BE37CDBB2B9AE8D88DAEE5
:101600009A39C4A42A57D9416772C4B321876A386A
:101610002C02FD22FDE7F933AB990F3E98196B3090
:1016200074D813CECD9250332A7E1641C5138175DE
:10163000B7AD328B0A15A8B88436CB984619F9FC99
:101640009BF0995F42E7FF8D8E353C2F4379717B8C
:10165000F2EC14B26E9B980DF1637D6F62B60D597A
:10166000B7C34A5BDF815564DD31311B624A86CCEA
:1016700079365AB94C02BD5FA45C06B579B3EB88E4
:1016800081490E613E0B017B5A49A8992CFB79FFD9
:101690002EA5F33FA78B3F868719CD9007CB50D15E
:1016A00052E438DF62346BAB19C745D8EF852A5E48
:1016B000166FA3D99013F4412DBCDF14C36FA75448
:1016C000A864606851D60CE16F91E352B4919444E0
:1016D000E1D2A2DD68E7B695EBCAAF225319FFC984
:1016E00087C052B45492BF93CE7F9FCE2FA0418F1C
:1016F000FC0F69620FDEA6C4062B89547B362FF3DC
:10170000300895805089207468BB50796891B7394A
:10171000BA24853F60D6869E62A0836CD94983C86F
:101720000DA275E5458E511EA20879373A4EE77D28
:10173000B5149CF2C94EC813D0A2D84A0FB358E9C9
:10174000B3BBE93CB11DC341B96947AC416B20AAA9
:10175000018B0EB44129E80BDA42705A69C8AF4BCD
:1017600029ED6F94A4B518F8808EB67C44DB5596AD
:10177000DD74BE8DB61BCD0EB06EF0DB6C420E3A42
:101780009E8A379A4B99BBA1906ACCD4906A068204
:101790009991851964D50CA4408FA4F91F77A78E61
:1017A00025C97A5942CAC2B65585FAE9CCAAC9ED0B
:1017B000095FBC9FB61C8048DCFF215DBA6D25D156
:1017C00051446C35E512AF73CB306290551FD2296E
:1017D0008B4AB7AF4C297D87DCD82B5C0C2D2211AE
:1017E0005E16BF2ECDF2213D774598F617860FF194
:1017F000D0BDCC6B6190717BE853B44B5E7C80D6DE
:101800007C18676425E70ED0730787EDE3DD09E6F2
:1018100062B4E170E723FA1A7C97C5E7D289C8AEB3
:1018200000FB1417D0CAD583137946503817FE86AB
:101830004BC4F6C0AD3D1E42790702E9CD0F218AA7
:10184000DBBDBAEA7DDAF23E7D0A72614A9C14C1C0
:101850002770196629F0C7D1D902BA64989258F155
:101860007DFAA695FC40B0E06F0CA606AD1795C5B5
:10187000A70061511A64E19C3973F642947F106E9F
:101880001C5A42EF2CA1D7C51A8ADFA7438B0E96AC
:1018900002AB6B595BC3E708C30C5CF62354BA6D0B
:1018A0009518176C5B55FAD12A315DF0D12A08EEF4
:1018B0001392B278D7B78655E1CF853F1BFE4CF81F
:1018C000CAF0B4F015E1CBC3295A2453307A130976
:1018D00021D9D2D0A5F07CCFAEBF2389688C788C7B
:1018E000648C342FDE26531AA320B964B610E3703B
:1018F000D8436CA1C661B087DAC28C43610FB3854F
:101900001B95B087DB228C43608F38CD0F45E905EE
:1019100012764BA5BB102A94A0435214C7BA426C4E
:1019200052B63FFF497455AED414AC5F79555A474F
:101930004EE43C3292FF6C476C769D7423E492D85F
:101940003596F52BEBEC11701A4B42B178B63ACEC6
:101950007DCAED8A01C7C2A71422A338517DF61BA8
:10196000DA2586903361CB37B4F54FA9D99096A785
:1019700048052BF27E1851CDF094F9FD6966A1C29D
:1019800076F6F839578BEDD429CA753BD6D016B9FF
:101990005D7E5AFE6F794CE4B8C819FD5EEE773A69
:1019A000B23EB228F2EB482A52117939A231E278DC
:1019B000C4BF2380D569CB6C3544B0CFA2575F3DFF
:1019C000450ABC5E7DCAE712D92933F9C7A3ED6D7C
:1019D000C1C8B62E486F30D2DB8EB47BE0DC2E3629
:1019E00007301E57BAEDB4F93BD23E91B90262AB53
:1019F000A2C8B1C167345738CCB0BAA0DE1CACB8AD
:101A0000F75ECBF7A8BCBC9A3958019CCB614DE47A
:101A1000D72475B9FD16B03BAB57BB5A7BC0350612
:101A20007067BE477947EDCD443268613B1FA237EE
:101A30009F270D6CB63A3F91BCB23558D756BFAE12
:101A40007E23D8BE850A1CB18606BEC56BE887908A
:101A5000C9B28694E9966092968EE71977BDF66FC3
:101A6000F33F365694C583EAF6A2C3BC7C383F6385
:101A70001A73B0A2FC9A1D99C2AE910FFE7C581940
:101A8000036CAA99D32EE1FF4ACC7A53CAE099E5B8
:101A9000E54564B110EDDC1474F471A0C94A631A11
:101AA000DC86BF7952FE76FA7EB075F2D553F642E7
:101AB000CB20DA2EB70CA6991C39497F528814C85E
:101AC000FAC7D4ECD3A75D1ED2B7F3F56A1205ECC2
:101AD00038B0B30E15950EA5CDA74A87D3E66FF99A
:101AE0009039452156E18F1BDB59E54A519CCE7C4C
:101AF000963CA681580CB7FBAAC1B5067CF5CF4E23
:101B0000BEDAC4FB6AF3FF6E5FDD0EF82A19BC650E
:101B1000026FC1B36CE7483B03B5420B86D2B67384
:101B2000829EE7F88297724940A6150CA7D3AA991E
:101B30008261B45DD6EDD2A514E11298A7976B2D02
:101B400002333F2FE1021D7C0112CA763ECE683E71
:101B5000CFA7570A84503A1D502B8DDC9604DFE640
:101B600013B00796A2E04BC0CF41F891D8B100FB6B
:101B7000D3E672C1C04E52699D450E8C8C422EDE5A
:101B8000019B1CD0ABD1A9BBACC82E15526D3A2815
:101B900033DD1F7BC44577D95F4FDD71DDB275E161
:101BA0008190D15CE6A0603D0A25C47CDC924EA702
:101BB00014F72785D985E10969A74E5279500BAFF3
:101BC0001E2B8BD7FE729232D5F3A5BF8C2FF665F4
:101BD000E6327B7F60651723A86EEF5B1F7F2ADBF1
:101BE000DE84AC4F3C956D3B6E7DF2A96CE063FDED
:101BF000C353D97564D82944F007CB08BABC1CF686
:101C0000DFFB31E5E57DE14E385DC7963A9796F901
:101C1000EFD89C3CFB8E1BE0325EEEE34FE5AE4915
:101C200042E4DD1014D3EDD9B92F2421BB28371D90
:101C3000567D6E46120A0E93E24134317678B738FB
:101C400068BF3098BF10D9CB85E221749C94831B68
:101C5000607A45E73BBC4BF71494BE37936F4371F2
:101C600046142247D7887B99B50A81459ECB2B7CA9
:101C7000C41C8F6185B88247E4E6A1ECDCB75176DD
:101C80002192EDDA3691593539D6F0F8804B83063A
:101C90000EFE6C40E840FBC027069C1F12A97C404A
:101CA000691AB267C8E3030260B0534A0B4A3AB8F4
:101CB0001DE4B08F9AEF428FB68893C082DBCD1EB1
:101CC000CB6035FFD162A1936087928193405F938F
:101CD0006510A48F252CF1C45D56054A7856425FE5
:101CE00027976D2D4AF249AE0B6C4CFFF0B3B7EB62
:101CF000DBB9DE0D70F5F4C21538DE5D8928FEA271
:101D0000CDA35CA947FC5581055C2477026C4DFF8F
:101D10007DB6263F5B5310DBFF5D7702EA21EABF09
:101D2000AD1E7CF26C7916BD88FEBFE74E7B14B207
:101D3000B17E8BF9EDD5ABB50CE5C2F0530232079D
:101D40009065F141B4458086E2946D51AA1D7A6197
:101D500033099B53D81025E084CD246C4E6143B4E5
:101D600080133693B039850D6101276C2661730AA3
:101D70001B1209386133099B53D89058C0099B49FD
:101D8000D89CC28624024ED84CC2E6143624157064
:101D9000C266123627BF914E61CF36BF030560DBA6
:101DA00044F3F6DD79EC1F77BF7D70FBA238390A6A
:101DB0002D2A9779E307C4AE83D2F02E983078EEBF
:101DC00030BF7D3C2F4FB2F4EDA579A658DEB0545C
:101DD000E2AF308AEF5117EBD4C533D5D7C82465AD
:101DE0009E3A7512E5894F89A8BC8FF95EAF56EF10
:101DF0005A83B7D249BB10BD559C64CFB688C097F3
:101E000024D64758A82421F8E116ADCEC7EA5D6B69
:101E1000C7938B4C978BA2F68B488614000CC4C8D2
:101E2000D8380C0A3B2A8618F9B0D893BA7530080E
:101E30001203BD40E9F73C902BDBC9812CB60BD9CE
:101E4000629E6CD07F228BEB42B684278BEE8B6C2C
:101E5000E98BA4CAF266758C6A369A5793966ACE55
:101E60002844E8E06A33530E8B9A2C23C832922C14
:101E7000B3C9924896D164194396B16489254B1C25
:101E800059C69165222CCC3EFE701E591E21CB7C7A
:101E9000B22C20CBA364798C2C8F93E509B23C49FA
:101EA00096DF93E50FF098D129712CBA665E9906FA
:101EB000CA5D53F2BD75856D8C70B82AE8F0593053
:101EC000B217CE52C16A645F0C6620FB12DB387E0B
:101ED0005F669B182745E46AE835F3F8581259669F
:101EE000BA2CFE0DB3287499A8C891E3339A4575AE
:101EF000FC26AE663299ED43991F872E2431B12717
:101F0000CF4E59B74DCCB649ACEF4DCC2E8B2736C2
:101F10001199A5CB44D61D13B3B59089A22B52EBD2
:101F200076C0D3C4EC7B0FAD40D6772666BFA15CEC
:101F30002943E63CC31AF19A416BA2D78C06716F14
:101F4000DA7352F6D9B3E328CB7AC864E17A91E325
:101F50005F438D961C35B4653A2EC18CE15C6C9E56
:101F60005148FB459879FEDA2B52338AF3714520AC
:101F7000BA9A39A8B598C019DAB8A3624CBE4E9F78
:101F8000765DF7B32BBAFB02C99738CA46BF4EB38A
:101F9000E2B8A8501359424349A8A3229EB5A83BD2
:101FA0006B3F5BEB1A0CCF2BAF3B815C6C357375D1
:101FB000EDBE58C325599946C80A44E58F509F760F
:101FC000B5C4B690400129404543AEF07DB8FD440C
:101FD0000641DDED6450D009CD9F440B27E001F4AC
:101FE000A63D3B655F597CE68EDD793BDF99684312
:101FF000A0A719BCA45C868A1C2BC01968E78E892F
:1020000075E46BE7CE8975C2C7F689A4B0EEDC36FD
:10201000B12C7E8760E585FB087FD0D416337A9695
:102020002BDC362A4E7E4ACE4AAE8E8A3510E04FE1
:1020300043C8292B3A31CA60B81ACDD7159305A9E0
:10204000792D8A15890B016B14FE43ADE1B04583F0
:102050002CD350FE24943F05E5C3C76B287F038A29
:10206000355C8F418A103B46E659CCC2E106E163FC
:10207000E67083ECCDB2F8146279F2943433DA4826
:102080006F10C521EE9A59020F9114399A8D46B3FB
:10209000C4D102AB94448F040ECD21607EFE6360F8
:1020A000E0238C7C9823C006C0B75F68D1172BCC87
:1020B000729B9A0F5AE5B27E458E877D46629D7E61
:1020C000E06A0E9B691B8830B9EE85F2B78766819E
:1020D000413FF0CE1CE53279E69EBC02B0E440ED13
:1020E000959082ED136D21053BC05E3659C17B137F
:1020F000ED5401319A3F341712060C8BE78AA36D19
:1021000061E6109BCC1C06F710446138845384B9F7
:102110003F1126B7AB90F68A3C143411A580D850F5
:10212000B388D70F02F7459F510999936616C19B53
:10213000CAE20F86005AB98CE876AD9A11038F6B0C
:1021400056E84E7575E5E5D5CC89FE8A9F084B2289
:102150007C99BC68072C7BE17480E22488023514EA
:102160002E19CF160298FCD5BB9EB4F503F173E689
:10217000CC2972BC176D344790B02546D25E190841
:10218000457BAF0D5060982236049EAF5C16014F20
:102190008763E5CA35181E42C8002D4145DEA5D12A
:1021A00036A999B20D3423E6CE643EA29F8BCE8829
:1021B0007E293A2B1AE84C836D1173E69814B09A75
:1021C000C26031CB89F94CF068E5B290221BAC03B8
:1021D000CD0377C0EBF71A10D47206213A53DD5FB6
:1021E000AD52A7A86733B39923CCB3EA29EA0DEA25
:1021F000AF9883CC6C1EB2E1FC35662E93C8FF5BB2
:10220000C1AF69FC8A60502231A23125A2910851E8
:1022100014A22488A2691A13D4BCD0F9A14B421786
:10222000FB611E3FE7F1FB62FFF7E220FCE26EFF7D
:102230005E8EC9F2C33855564CC73F63CC3731CB9D
:10224000541DFFFFADCA6AFFBE1AD3F13DF793904C
:10225000B95B42F67F4E8363B4C3860D2BC02B213E
:1022600014EE2D10AFACABABDBFA399449526F389A
:10227000A3998648A48B1CE75B8C666D35E3B80890
:10228000FBBDE0FDA5F4DCE709393BECF4E9D370D4
:10229000BF14AF24F852F1CA0E74359396664720E6
:1022A000A92C7E1170334BC822A403783A053CB6A2
:1022B000D79E83F620265A9506AEDD6B3792CF8DDA
:1022C000685D390CA07722C44A0BB6ADACDB6CBAA2
:1022D0006D902D2A8BDF20EA6053CEEB87CC21C096
:1022E0006F8FC0F1940A95603B830849F9B110D70C
:1022F000AFC02A165E295B546E43E648A0420295A1
:10230000CE4C2F152D95D8F0BD1080C3CC18581C7D
:10231000AED61C4405225467C3E5C7B0AB91D903C0
:10232000E10CEF5BE7B74F4F16B2459AE1A1F6F526
:10233000FCCBEDD9FCC363416F4EB62865A9AC9CBC
:10234000C8328BF855C27790D1D2E352569AB62E46
:10235000560997D2D67518BF67F6FFC901B15A6002
:1023600003DDCA1C0DCBD26843597CFEFB747E0191
:102370009D6FA599CB1288F65DDB5615EAA743E160
:1023800035C085B3BBE93C5CBC9BB65881F5B5381C
:1023900015B2C0CDF769C0580ED096FDB401FEA4A9
:1023A000147F44F3D5382DCEC8E3ADF4FEDDB4F68A
:1023B000064279E1F0F7A695FC4EBB6E127E8C5377
:1023C000C1944841E8A2E27D749C0EEDDDFF214DF1
:1023D0002AECB5BAD26D2BCBE2770E4F251F3BA36B
:1023E000852D26151EF5215D5C40436B52AE7A9F0C
:1023F000DEC9A4165BC99F9DEA54BEA4030BCB3E65
:102400007A9D219F574B10D5E9497743F7E4B9BC32
:1024100006D2D78C968F6946A566A68690FE62D9AD
:10242000435E6117C15E5C44435429574AAF15DBD4
:10243000852FA83F45801C4254B68BE1CA2E85C229
:10244000AE24FA83F2B07E4B56CB621A5AC3D3F451
:1024500035CB127A8765194D70B25D0831C7D4BB90
:10246000F498AC2609599D21644511FCB902D6FCAB
:10247000E9886F1F6FACFC2EB9082C5EA8F777C7F0
:1024800037AB9914D21BD2A0CF8145A1769E5BC1F8
:10249000FBCF0EDE2B8B27E1A015CE1F186D2CBABB
:1024A00004AC5AF8B382EF9249C0147C2F6CE785D4
:1024B000ED6272E9F96472FD5291E3C934E8908EDD
:1024C0003FA419B557504B414DB20D15B89309DFD4
:1024D00082EAE4B2F8D20B817BDF66185B0AAE2495
:1024E000434E15D426BF51F033DC29FD577288A91D
:1024F000E05FE4DAC5E4AD8711AF80F7D1D1A497EE
:1025000042044D9F3B7424519CE86DBB477363E9C3
:102510001D5ED143DF252B5ED870F8D0459E73D168
:1025200022205857160FA790B210B7E0C2D0A2438E
:102530003F272B575E4FB6D249A89A39F4EF642B48
:102540004A4287BE4FB65249C89E6D15C19FEA6484
:10255000AB3489F002FFF17497C02D8E99A38DE200
:10256000E9E6E92DD5CCCD3B88EFED7ABCF7945E5A
:1025700091F706AF52F11D1427E5EF929B0F71A35F
:10258000C95DD33FC1E07B0E97FE9B2850E4F8DD88
:1025900068BE458AEC081AA472D9613302DC9564DE
:1025A000B3B6F46AB27946C0D0ACEE142C0DAF9B32
:1025B000103BB6E07AF21B97F61C2EA803931CD4AE
:1025C0000E8B33E6D289C826CAC589A042DAAFABE2
:1025D0000727A2A27253085C2B7F83B4BBBACB2817
:1025E000EFEF1F5C4FE63DBDFF30EA2A991CD52571
:1025F0009B11B4B743D793BBF0B3219EA1992E751D
:10260000279B25A555C96669E9AFC9E6B0D29A648A
:102610007344E9F7C4A6450EA4860EE4A061EDB7A5
:102620003B6C0FDFF6E40537922F2D2A2FAFAB233B
:10263000FFFAC1BF34D065EFB1883C52ADC877D145
:10264000653AEFFB1D20BCE0574135DBE1A2950B5D
:1026500069905493AC7C9597068BA8F43A91C10E7F
:102660002ABD913C6CD871491E6D130133A8319776
:1026700069570D4F07F6026510B94D130589808320
:10268000F4CEC741FA319477C78EB20BAA92ED8F80
:102690002F8238E3EF0B71AB5D0BA5898F6751BBC0
:1026A00068C453127151606E9718FE9AEA891DEB47
:1026B0000ED26483D7802D7F12B848A1CEF4ACF23D
:1026C000DE80CE3BCE4A905F61E532C4EB9C571D65
:1026D0006B80262A12896811458B640A460FDD54E7
:1026E0008F4D1267088AD02BD68E5E1E9B199B14C5
:1026F000FB78AC6EECEB639F881D3076F398DA3193
:1027000099630A467B46E78D7E61F486D110577B3C
:102710000EFB2E42207EF06B32F3BB91F0DF1613DE
:10272000875D98D93F92C77D7031D98E984F47F118
:102730007FE009F64AD0BDAE2CDECE61F8B8B7AE68
:10274000AEBCDCF90DCA6BB4E721124ACA956A54D3
:1027500044BACE7562D5F6430615D5D929FE348024
:102760008418F2CB862AB6FB301418DB342DA71D53
:1027700063DCF9C983C38611EBB819E4BA669BB66A
:10278000FBF0CEB30FF268A57121A05DC1E872A87D
:102790003306060D44114886C448843000CD03E555
:1027A000073202DF0286DC11C16D19500D440C8224
:1027B0007793D2C9348DE2DF6B2051409ECA6133DA
:1027C00002AD79CF52A074597C9D4D50FE042A076A
:1027D0004311370E33D39D8E9DE5C8E5F23FF503D7
:1027E00072C653D605BF972F247B0E4309BA9E7C31
:1027F0008A6245F70AACC93F0EB3A261FC7D9ED147
:102800008FBCD5A19A5D4FB62B0AEA9381D72D7064
:1028100047C11DB86F1B018150C026C7D5D71734DB
:102820002613B58996961534B3622CD0645A444465
:102830003DBBABA08150BCF8905D5240442FD59079
:1028400078B33B3933DA9547D991C99A969A0D1ED8
:10285000B62E4FCD3E4D86EB5AAC81C91D6B80B86C
:10286000849AB38266EF425615F3CC40F13729DBE8
:10287000E1950954D1A155A973F86146F079AF9952
:10288000EE3810D9E8E3A2BC489B084E3793E1AA82
:10289000318DE7FF1D7AD67F075ED17E1F2A77C173
:1028A000ED642259B8FCE51B6CFFD2BBC970A5D4FE
:1028B00093ECC7B86E0A27F062E1106C21E801EED4
:1028C00027E7B7C1B6F92B68D09C77A5A8DD959D01
:1028D0000EC00E7014EC6D3B4D4E786F4349309333
:1028E000E53862C5F7DE2B548572E7931063A000CC
:1028F0007FEE0A214E0326FF4A26B6313F684EE19D
:102900003337D47C3754B9EC6E91A32DD6687EC88A
:10291000C1C1FA70ACA16C46CAA545616F82827FC5
:1029200002A29C947DE0B207836E7B5B63CB66144E
:10293000F74BDC377E5D4B9A7E7C5C397A0DE9F98A
:10294000F5FEB85C58FF1A4702B7B7F557FF00D637
:10295000932D53D465F137736903631D4782407F1C
:10296000E2C17CB99AFC14E4671B1D270F49B784A8
:10297000A96D71715E8B0CEEDACB912524D1FE1A14
:10298000B248130D06DB5A7674BE5ABD6B0DDE4A93
:1029900027ED42F45671923DDB224AB2230B4AB234
:1029A0008FB05049105661894BD7DAD6B0B1F9B41F
:1029B0003A1FAB77AD1D4FEE325DEE8ADAEFAEB166
:1029C000BDC06AE1C163E330298F15438C167112D3
:1029D000C472EAD6C120480CC40299C932480D1409
:1029E00040AB6CA77DC1F6579E36B60BED629E7666
:1029F000509FB47FB5BDC80EDA93670FB16E9B9838
:102A00005D160F954786CC79D0CE5F240DF4795AA8
:102A10001339272FDC36EA949C55D8460D338F3274
:102A2000D846B112DBA87BE10BB02126CBF3341FD3
:102A3000F6CFD38A562101DEA15F174135B48EE36C
:102A4000EBF4010A39CDE80042CE0AA8B32EA69ACB
:102A50003965730DB3A1D73DAE81F645B9704E9A75
:102A60005C0A7173519AF75F40F4F1F8ABE3BE1C56
:102A7000DF6FC29571977930407539709D3356DCA0
:102A8000E49CF6BF17131221711F447651C43BB466
:102A9000E51D3A2097763D0377BD46A762E281EFB8
:102AA0008DCE3925630E9C373AA1179C92A2BC614A
:102AB000A72251C920288B8C717C5E04096881385B
:102AC000564B0478399E8873CEC90322AE2B91A948
:102AD0003B51ACD220BB54CD4022389C46E729263E
:102AE0006FD02977493F85E8D4C7796190078390F3
:102AF000ABB605AEB5C0BD6AE69A651B6DA7FCDA3C
:102B0000C2DF53CBF268FBD2B3876836CC7208EAD7
:102B1000A19D46CC5D097956C79D5C3A11D997E6CF
:102B2000E2443E7641C7C18928579488E0ADDBE88E
:102B30005C49627B48036A6022B26CA70D40C6DC28
:102B40008FEC11CC36641833E1CB099726CC9EF874
:102B5000C844217EF9A28CCCA3ECA65CA446CC7B15
:102B60006AC63C9C510E80FBCCA793999F8631DFAF
:102B70000E630E0DBBFAC2D5BF5E7D71E9C770F35F
:102B8000A29D78D73ED0B299867297AD84C5A958D8
:102B90007AFB6A34F03FAFB647C2029C4721302926
:102BA00018813934DC1E47757C23F2207B180255CE
:102BB000ECE1FC2A125B86D0CC91FE06DE59105661
:102BC00057A3819E121ECEC44C64F2C63143A44C5E
:102BD000DE08064387928DCF1B5B16EF00FFBDAF6B
:102BE000FD458620408A1C83271A2DEFD23B5C329C
:102BF000BB985099247609D9BBD206FA3A44855D30
:102C00006E1E7560496A362BB52D54AE349917DAAD
:102C100016C6B12CD6FEA208A1CD0B63419573A5B3
:102C2000B44B5CFC356D8E3674704801524B296D87
:102C30008BB67C4DDBB1393A360D62A4A330E55337
:102C400089B6E9501AC2132178E75946AA6D0B2CB0
:102C500063D4B6C72CB16ADB1396716ADBEF2D9390
:102C6000D4D0EEE65B46AB6D0B2D12F8DE1353B7F6
:102C700031C6A6B688D5B61196096ADB48CB44A8FA
:102C800033A4C68CB184AB6D632D52B52D166A8DFD
:102C90002DCE12A2B68DB384AA8B67238B465D0C12
:102CA0008E8D57173F80E254906C53D4C5F7932F05
:102CB0003DF94A225F0C7CD9265922D4B6C964D189
:102CC0005822D5B678B24CB1C8D5B6A964996681F8
:102CD00092F63BB24CB4506ADB83EC50D0FA21A898
:102CE00067B687A19C819AC9211A73B205259AC239
:102CF000C89FB80AFE0F38A95F22440052332FC67E
:102D0000310386307F1907D851714672322C9E5993
:102D100010015C2EF215A79AF1CED5909CE46F0FAE
:102D2000D508A6B273D4701271852C890A66D56451
:102D3000F844062897F0B98B52BF80EADC116A97F5
:102D4000E70544BE06A95D77F9FA943F589D3F44D4
:102D50009D3F4CBD6BB85A40A901B56B247F7F1ACB
:102D6000DCB773162AF1D75F8B1589A01FF3F630F5
:102D7000E66312B62478950340F0B4FEE62FEC45E6
:102D80004F9ABFE44B443254D9C4620659A6AA995B
:102D9000BF0E071A4D2B2C8A56E6D989B6E850E8A3
:102DA000451C02EDE142EE54359279A326C44276E9
:102DB0005042661DB8478D0EE860CE54234B3FDA73
:102DC00074E4D222D99BD54C8ADD94B22F4D68632E
:102DD0002B3F9E6C1E0A828CE6E165F13BE27CDCB7
:102DE000DE4510FD0787AEB322945D5707BDF9EEAF
:102DF000BED8752D06D27DD0A853481A9772495671
:102E0000A6F15B2A1F25C283778528B72AA08B20CD
:102E100028D61BD1D6FEA4330C4CDAC5715B07252E
:102E2000D96928D1F943D5B65170DD46BC12DB9281
:102E30006608D66229885FB47BE84154BEC12F750D
:102E4000B3AB7E5F6CA73BF98392F2FB27E5E740CB
:102E500014DA9DC01BECB25EBD8B3681585EC09FFC
:102E60001FD21881E4AEE649CD130086E2FE89AF99
:102E700053AEE6B2F86265A225111747255AEEC790
:102E8000C5C3122D7370714CA2652EE6F95089C02E
:102E900067B03E7FB0BE2C7E9702150FD6CF9994B7
:102EA0008CE74C4AC1A1A1D7E64C7A043E17E0D387
:102EB000AE5ADE0F83F5E0B1C17AF8C5D12E497E56
:102EC00032CE7F10170FD1C38FFFFF08CE9F8F0523
:102ED0004E08953E861FE2B882A77169222E780CB3
:102EE000CF7C1AC3775D9D5B815C97AB1948BD763B
:102EF0000535C5FC55CBD358D0D4F2189EF834868E
:102F0000BFD50CE908B683E6AF6C5F9A0FDABE3026
:102F10007F79FCA06694EDA072D957CA798978DED2
:102F2000FD785E329E9782E7CDC1F3E6E2798FE0CD
:102F3000790BF00331E62F620DFC8D39FE3FCBE3B8
:102F400097CF23807ED33039BB003909C217B23CFA
:102F5000F44ADF7F78FFE15346721C376AD4745815
:102F600053529E0368C7329AF44CCF277B81839BD0
:102F7000F5246827ECF5EEF57AD2D3990EFAA7D7A7
:102F8000DECDDFFE73FE05CF73D9435443674C8C0F
:102F90009BB93A393988BF469B3997F0CCD4A41BEA
:102FA0006EBDFF5EC5D633DCDAB5DDF5EF413346E5
:102FB00063D0EB0D4E53F0EB9C06BDC1A061FC94B9
:102FC000FE7F41E0A7E8C4C5E3F530E90B17F461E3
:102FD000438592808FF329F8AF3E6E06F4ED09E346
:102FE00066DD7D520671E8225BC30474F7BF3708C3
:102FF0009F99E5DDB8E1443078333383F04097EEB4
:103000002E29EC6405A62BBD4404102E532A348CC3
:1030100041EFF5797BC0276813F85B5DF9CBC2956A
:1030200051CA28ED84D88434F023D0CA64E1B22098
:103030007C5676166F738F57E0D3959EE70F16FB7D
:10304000CAEB3D716C6377FD058E4A856005C1064C
:10305000FA1EDEEFCD0CD8A107FE70BAE59CF7C5CD
:103060001740FE967288CF3E6DDE3DDABA60BBF93E
:1030700057248952661ADC26777A66549444D48D94
:103080003B42103BED6BF761720A940297CED2215E
:10309000BFB66C3EB3395CF00D797BF0FBC32367A0
:1030A0004D5D3B7BDEEAB6835FD416738E9F2B1794
:1030B0002F99AA8B8A0AA25728896F62139E4BBE4A
:1030C0007F39C85FFFDA518020BCD7279CF9BC7ECE
:1030D0001C7C05FB5F9B90957C62FD6BFEFC7AED92
:1030E000E889A5595A6D109EF875E3D1D7DA61E3E6
:1030F00031AFC7D3F9E57C860676FEAB937C2F7F94
:103100000E59D891C941F88459D949477372E034AE
:10311000B722F748CE91A34F67272404E10372DB5F
:10312000DFD6E57DDDEA5F17FE10AD4100963ED3A8
:10313000393E728EAC2FDB786C4BF90E5789C77312
:10314000E60CBC75FD919C3EF977CE1FB058ED8919
:10315000DA9B878B3801FEFEDDDB3FBCDD095F5665
:1031600053FDD9AEC6BFFDF0F60FEF55BC51B1F51A
:10317000E4C64EFAFBDF7F24005DDF1FF01FEF3750
:10318000538FF63BDA416FA9A878DA3873666FF48B
:103190009BB740A674969F95CDE39D6C66566424BC
:1031A000E6EF656505E1DBAB6230F4E09F00748D0E
:1031B0009F8EF3FB973FA78D4DD02A3AD3BFFDC317
:1031C000DFEB03B62370F3FEFB97DFDFD9BE3C25B0
:1031D000A1D34E20510ED1DA03DECFB99B7ED9C6E2
:1031E0006C5178A70AD3119F4E77E7EED2DE65DCEB
:1031F0001DF481AE13E8349A20FE40CF63BA420733
:103200003DF4CF850B3217645ED8B219FDF6E1E3C9
:1032100082E53B3BD5C39E075F45C233B33C5B763B
:10322000FCE8792E2D0823BC88C47639A93324FE06
:1032300059B6677AFE66D7FC10F2262DCB93BFE312
:103240008C9F3E2BB367FA3324C7BBD26BB4E950D3
:10325000D5A037EA832CD48D5EE0CFEB1E4E38F438
:10326000A53F40E7F7A16E591A8417BA61A7EEA8E7
:10327000713BBBF2DF7C06F2DFED66D91D79177674
:1032800074E5DF677D11C6971C77EA94E5F5B37E98
:10329000E886EF5DFF60FBF9EDDB43FF12E801AE6E
:1032A0007B4A4A9CDD7B94DF7E7E0B0A3E0BC61771
:1032B000B26E6750ACF72C1F6A40667877F9C4632A
:1032C000C1FE33A41BBAD1B7BFAC97F820E717D221
:1032D0004926A43382473A0FA899FE3AD035FF0316
:1032E000F4843A9D21D9D4532E05F8A7F3FC83FD2D
:1032F0002B0C884C3EFF4987856FFF29A906ED39C5
:103300006BEAC865832640D7A3F7DB6D1FA80C02C4
:103310004D30AF6E0AA235AFF8AC1F743F16F8748B
:103320001D41B818D52C86AF59FC247266A962BA23
:10333000D0735D472F723A5E247C47CA23A13226A0
:10334000CC4A68AF9CA44282FDBA1788F651C812D5
:10335000E843000AEE7F02D7EE3D2418DF192BFC6C
:103360000BE00DE990917D09434FAFBD9BBFFDE799
:10337000FC0B9EE7B287A886CE9818377375723219
:103380008F19353D41A9FC8FFD2D30482C900C71D3
:10339000923A1F74AED3195348E6E656E496932842
:1033A0002B7FCEA8D375A1F5FABC1B379C0800FC77
:1033B0000B92DF57FFE99BFEB7E17BCBE8DF8A1773
:1033C000FC59F8DFC60706540802FFE9CEFF327E3B
:1033D00041265BD897F486E6D6D43F19FF644CFDAE
:1033E000EB933DE2539ECBD46850BAA7F7FA260C74
:1033F000BFE78528E8867DDEC8BDF5D6456BA5D537
:10340000F5D645EEF9E7BB60FBF28F20BFA7FA23A4
:10341000D4B9D78E9E587AFFF2E7B4B109DA8E2C70
:10342000E8E3BD3D696EEA56A7048CD007B409599C
:10343000BFFFD78E1277215BE785B7F355AA831AB2
:10344000B0C9F71B78ADF8E84CCFF46EDDD24DC6AD
:103450005EAF67C1852D17D23D9FECED82E9D09F0D
:1034600064AE3F9783750BEA395DF5EB6243C9049F
:103470006D2CEF017D37AC48122ED36AD80BAE5EAF
:10348000ECC368FC3EE0EF69BAE1C9C8CACE52F8A5
:103490002B4C379C2C1C4E95DA096973CBB7EC8802
:1034A0005276C3339A593A5FCDD569D37AF5CFEEC8
:1034B000BB00205DA94837187A949F9995C9FBA352
:1034C00027F97C870A275316DED19FBA8E9E29BB27
:1034D00056D9CEB7D233D91D251077ACA7E7A22D88
:1034E000E04B2EB0993D6505E9FE3DE543E7D1A9E6
:1034F000FB7B3DA6CEFE251D05741A3962EAD34931
:10350000894B1297FC9C9FDF4D7B417758657CCCA3
:10351000A2CEF4B374D94059B67EA348248952662A
:1035200076B12FE10F55FAFE631B374844BDF89F73
:103530004497C80F5DEB2BE4E172E899F793FDFE29
:103540001EE90DE91943FF5155153F9296402DCFC5
:10355000EC563F406F4C63C045C60C98AAAE3A7219
:10356000A407FDB8EAABD384F8EEDEBF738E1C5916
:103570003C7B7112CDF3E8263FF0FE7FBEFF417821
:10358000B82466F8BA2EEF9748B3334964C11BF8E4
:103590003ED33DFE18CDA717FFF1F2E3D5893DF2EA
:1035A00047A447C1DA1BBD90B16ED693BFC3D953B0
:1035B0003791B5CB26D073FC0B12840177BB600525
:1035C000FB2D7F214B193578FAC86AA7B313362A29
:1035D00026CADF45EFD5B59E3DD52D3E10A279EB2D
:1035E0008BF8ECD330EE2EF4A41313183375C4D437
:1035F00025B3672F3E9293D3054FDEB4B5C2C7B251
:1036000026F2E50BD23558BF8084EEEF5340E578C3
:103610002EF9D8C68D185354B7B707E2FBB1571E21
:103620007BE5BB9D6F5DFC54DBD5FE60110AD3C901
:103630004B9FD36A15CA6EEF4BCFCC8A0CF7AFE025
:1036400085A818A9A41B7FD25B18CDA8E9CB93E667
:10365000AFE61A1A7AB0CF9869D362A2643DD997BF
:10366000F70E641F68C1D70F955CDE09EB8FDFAAE8
:103670009A29D3A306F652FFA0B6B6E75777FF0AFA
:10368000D54DE6AF6F5DF30F6851500E758BCF8E41
:10369000CEDA737D9785A73C47E0A1550FAD7AF848
:1036A000F9D3B95BCF74EE5F1D5D67C3892DE55F0C
:1036B000B16CB7F777EEE05DF5E3755BFFDA51804B
:1036C0005EF2C7E9AE8A575314F8B07B7D286401D7
:1036D000BAC9EB18A4FF1EDBB8A59CD4CE2D2736A3
:1036E0001EDDD5F8CD8FC1F591D168C0DEE9999E78
:1036F0002D9BC333B33C5B76FCE8792E2D08CF7B42
:10370000BE0FBC469B3937A50F7C6C42E682057D17
:10371000E0115A90D93B9ED1A42F4CEF53BE305E9E
:1037200034723B0FC51B532BF376FEC42D5FDE05B1
:10373000CB53837FA07BA4A7331A657A66074E6FAD
:103740003068FCFCF9DEC2DFE9F9FD3DE283DEDF33
:10375000233EE87D3DE24D4EA7410F5A748220BCC6
:10376000D01F3B62AC6B7D34A4B33BF2FAA0E723DD
:10377000A40F7C6C82569339373321EB91337C84D0
:103780009E49CBEC147F82FF4A3C9E33E55BDABB5B
:103790007027FD3AECE7EFD0BDDAAF277CB0FD7AB9
:1037A000C207C54F8FF860FBF68C17B450902C43BE
:1037B0003DD51632D2B23C793B7EFCEA7ADD99F2F5
:1037C000E73C2525DDDED7FE72C23F2B287CFCEFCF
:1037D000EB1D2FBCAF77BCA0FF6FE17F217D416661
:1037E0007A266483C6ED147081CEC9EED8C153EE3B
:1037F00070B16E37DF637AE21F4CCF210EC9504A99
:10380000FFB4FE4C548F06091A5C17E81DEFA3DCC9
:10381000AA4DC6DEF194AF87E6DC89B7CA2DF5F470
:1038200085F7511E69CF782F26B2B59E939DDE2E67
:1038300045BA80D65C16B77EBD0F7D94D581CDEAA2
:1038400022FBA857AB3BD189BF1379BABCDE68EA2B
:103850005D3F2FAE526DECD2DC295EE71AD599841C
:1038600001EC7335EF6D5CE2B7374672A44246AAAD
:1038700055AAF5543875E24A26D56934112E4467A5
:103880002FAE57713A23C7F1F6BA1DE930F9DF8F31
:10389000BD525E0B4E186DBE264F952FDDF8E380AE
:1038A000265C7B4FA1D38D32403F13AAF67ABC171A
:1038B000DC02BFA33A896FA8E7D6AD93CE18D96AC8
:1038C000EA0739D1498AE4D47DD226795B4C93F654
:1038D000DD3756C3ADEBF29F535FC9E2DC9CFB655D
:1038E00069254866B90FAA5ED954AFAAD475F53FC9
:1038F000D7651C4EF2324D2238A7047C96A982E58A
:103900003C6D3E9F1FAF735ADDABD33FD63E9EFF4B
:10391000CBD63BC9B779FB9AC0B26E946EFACA791E
:10392000C1DD99BB17F7E57FC4E9FA8C9F84A3DD5D
:103930000334387AFE53FCC9D99AAECD19A8BCB865
:10394000597A2BF272D48DA8D3DAFF5A13F02B4692
:103950003425A5E4D40CCF8ABA1DEFF67F90DBDACC
:10396000167323AA562105BFAE50DE9DC165DC68E3
:10397000AC6FACE13619546E5D900C62536390FDF0
:103980006EAA7E06F820558AAC0C8F673977A5DBC6
:10399000EA36712A8EDC339A8CA684A314F7D67388
:1039A00035310F67BEEF0DBC25A2F1A79AD64DADFC
:1039B000D2DAF9BE989F127C095F667EC53CBBBC1B
:1039C000F59823DD585559D372F2F38AE2CA66EBB3
:1039D0009F1C2B7638D2A3A869B821E6A4764BFAAF
:1039E000F0252BB80395B3B857BCF56CA5DBE1F413
:1039F000F231F2CA3A29D7208FC2CB17B77A884E54
:103A00002F6F12A4582152FC7A9B3867A513629439
:103A100015B436720E23A7ABD4D5AB7E1DD032A021
:103A20002DE44E488BC8875A446D12AFFB3AEB63C6
:103A3000EF7A384FAB9700D1DF68D2391D100756A7
:103A4000F7FC2EC5D91464198FB4AACFFA21678F59
:103A50007A3D7DFA8FF8AA777C4E3602BDFBA2D75D
:103A60003955EEBEF05EDC20EF1D4FF9349CAF4FB0
:103A7000FEC40E5DF11E69A3FC6EF895981B31DF44
:103A8000DEFBADF67DBEF8638A8094126331763A30
:103A9000759DB8E8BAE5204246B43E6B53D6C17472
:103AA00047BAD540EE3A9CA5470F9F74541CA8B462
:103AB0007226F070A5BE23FA8C844747F435909A9D
:103AC000F7D1D4B6102F2DE430A9793FBAC17F5E6B
:103AD0004EC86114F05E2578AFB3FF4CEDFEF35194
:103AE000C4F65EDCD6CDFE07D3C75F7DF6F21FCAF3
:103AF000BF2BFFF86B6EEBCC98081C8D55F83EE998
:103B00007DD2D49113D7DE585B0BB5A329E87D8D08
:103B10005C5397E7B5614ECA91296D9272721F543A
:103B20003D12579C874093A7D5D3C4726C13F96696
:103B300009C02DB9001C0FAACDDFCCCE46AFE6B42C
:103B4000816E1CD586EFE16671D99CD1D7E687E9F5
:103B50000F4EA858B9F5D10F1ECF7F3C7F8175A1BC
:103B600035D3C42216AA530022BC62EF95A82B516C
:103B7000C713BED50E6BFE5D23460190923A8A268E
:103B8000B30EC301C364B7D16D2C349670867A55D9
:103B9000000EA44EAEE4ACCD741BEDC33ECCE1569A
:103BA000ECC1F0426F0778E179C92F17EA0EE92AD4
:103BB000E406B0B275444E36A98D4ED080D862D698
:103BC00091D2A3C3BD2BDC95CE7B6447B556A37BB6
:103BD00078AB488A8783ED5A01483D6CE5BCD256E4
:103BE000DC4CF9648DE11E4ED2D424673DB73D779D
:103BF000C12E6011248515228E73723AB22155BDF3
:103C0000C31F7F4E9EBF5BE53036C8A55C94B7C628
:103C10001D097DAAA1B289F71F861A26F444B0B304
:103C200083440CA7D739491400BDD1D1094E7A0C71
:103C3000C67C55AD54EBCC656B398E2551E16EEFEA
:103C40009BE085F6BA0B19CEB1EDFDD51F37CD2718
:103C50007551DEB5EC96F519F2933ABD8343426F88
:103C6000E465221329806D5ED406E0A5DA78403E33
:103C7000AE13E4B26E4EAB3B29CD34C9D9132D44FB
:103C80007E47DF6E96421F4542C2904D31BCAD5318
:103C90005ED6787D7C7C236044513EC88B807DA0BD
:103CA000EEF3F2A1CAC1AEA9F073C0D6A78333DB8D
:103CB00047BDBAFEED8CE90DD31AAFD76C59AF955D
:103CC00036B7364BE5482EF476C0638852ABDED16A
:103CD00019B8CE50A9AB98BFE9C1A33810FF95EE33
:103CE0005C769367BD3728BD4DCDBE669F65128B50
:103CF00021CB10A9BDE45E05DBEA255DB622BD221D
:103D00007D35C0010D814A05494A1312A28874D934
:103D10006669B3B44522C0ADC85B9144732A085E9E
:103D20000D7F21FC10E5A0383DA72791DCB6F6CE2B
:103D30002B5EA38FF72D747F5593BC318C0D69A535
:103D40005B031EF5347A59AEB95DBD2636756193B5
:103D5000560EB97052B45E7484E1E443EA0F566CB7
:103D6000E23671EBB9A300907590773E2AF03E924F
:103D700073FECAC28FB9B9634F9640757173994685
:103D800087CA2367DB63873355BA59EE7AF5FB1B85
:103D900097471F8F9F7EB4F4669347E55451AFE277
:103DA0001629177969A6656D935CC7A51AAC50EF03
:103DB0008CA676FB39C08BC68E0EFB6176693BE420
:103DC00024E624961EED801C2E876B157501AE33FC
:103DD000DC8D64658DA14D905F4DE18DB246D9DDDE
:103DE000E606AE816BE4A10980F8D987201BE5A423
:103DF0003AD5CB05A9AD5E3E03A132B561FEEDF02B
:103E0000160E9EEDF3B5F16FE76DCB574D079F553D
:103E1000905D7A0184AC8237703A1E38B78E8F2558
:103E20009FDF86F52A159C1AF9E027E3463897C0EC
:103E3000A5E76E2631A742B9795CE30FB5072BA43D
:103E40009CBFFC717EBB8457F58378609C8CA05F1F
:103E500023E706700278110121BFB25056A7F42261
:103E6000C36A828E93E3A37DD0FD082762DB6C7F5B
:103E70000113E2136CCEA8482DF470FEDEA4E225F7
:103E80004B79B4D1E93040B432158A7AD424836CAA
:103E90007358B94A807A805A0088F44C2EE170A693
:103EA00055512B3BC9708C717DEB26E85D27CFD730
:103EB0009FE42A001AE4CDF24655A3FC3BD53F749B
:103EC0000DBA4F8DC4AAF5001CF4238ED8EE3FE442
:103ED0001787AE0EAC9757A65A532B55952A6B2AC7
:103EE000C75D69AD60ADEE00F07D998F360780D17A
:103EF000DF5B8DE40760E452F352F3EAD101548FA3
:103F0000EAF507F4F5905106136B2A710680E4D4A4
:103F10002D79437823ECAD906B7C56D118168AAF7F
:103F200012070C8EF4F7B30A7CDE9946A885467D0D
:103F30003D6454ABF4D5F53FD6B02040A82F1CFA11
:103F40002592453503EA034683087373355EBEAF99
:103F5000F1F1E54599A8A4DCED84FEC60F1F58BF1A
:103F600084C4901C2A33D2F1BE972BE470D7CA596F
:103F7000C1FE2ADE0764AC4F3CA2AF1175F4D71C1A
:103F80003E2F3B46A7D8077C70ECF39102310FB16E
:103F90000F39C0CA485722314F629F64019FFFD03A
:103FA000951BC33CED1248DC377A3DEDFCA1C955A9
:103FB000F2A186F8EA0551E4D455EAE0DDFEF88284
:103FC00098EF887FC0EBB80EF0C7175381AC482E2E
:103FD000233586C41734553EBA04535528AC105DBA
:103FE0009CAC49D98A88FEB97CD490C86AE2F14E6B
:103FF000C6CD54A14645403F12F36EAEAA5DBF2C1C
:10400000D4467929210B7C3CFFCEF1CF110C4DBA5F
:104010008491D78FE323DF07BE0BE88748C5575449
:104020003AFD12F8451EC0724D222CAA4255238E2D
:10403000A0239489F41C8E14C42300261E5FAF10A5
:104040003C4CAC43E4D773010F0BF23FD309E1289A
:1040500088E2F85AD75EED482521316FB0EAADFA13
:104060004D29EB091E629EC4402E546032CE3DE2C3
:10407000462CD5DAEEFFAD0DE4FD4103229FD7803B
:104080006AC35E920B7E613EAE8D5700625F7FC059
:1040900039994C5873F5254ED6940EC02200C88429
:1040A00066A9177754770E751D9CC9BA79FE917B66
:1040B000D81D992775ACDC4719752B540998F8B2AF
:1040C000A30F7348EF60E572E4F1507EA54C7C5E6F
:1040D00048DBF1826111EA503A20AD09EAAE0747A8
:1040E000DD1DEEF6C922801C32C6D3EA0D6D837A3F
:1040F0002CBF158E50AB37DAA373F972A19B0391D5
:10410000936B95B64A2B74E95CA51BFA7E107FB7BA
:104110004A875856DE89BF3C084FF93848695F27FF
:10412000BC2F080F99C51F06E383F93BA1DE9B4C0A
:10413000C64E78633B5EEA4B70D6E0593A5310DEC8
:104140000BFD1B21EB02EB827A4D7D3AA9593A888F
:1041500031B7C96D729206EF1F6E5587ED7BB27F46
:10416000C052BDE38FCCEA0B2FF5F44DAFCA322914
:104170009DB16886FE01D3A3CEBFA89F5FBF2ED698
:10418000586FBC636C81402278CA0F34C24884C423
:1041900048025E95A190F6F3DF02A1280C85A308E2
:1041A00014091E51A07EA83F1AD0E7FD8168101A9D
:1041B0008C862025FF6F281A86860355148A46317F
:1041C000502719A44623D048340A8D06EC1834161B
:1041D000C5C21E87C6A1F17EFA0968229A842623E9
:1041E0000D8A4753D054340DA8FBA1DFA1E9E81E86
:1041F000A44533D0BDE83E948066A2595079F56855
:10420000364A4449E87EF4004A460FA214F4109A54
:1042100003B71F4673D13CF4089A8F16F0D4FDD033
:10422000A3E831F4387A023D897E0FFFFE8016A2A2
:104230003FA245E84FE8CFE82FE829948A0C68317F
:104240007A1A2D414BD132C02F472B501A5A899ED2
:1042500041CFFAE903F01C5A859E47AB513ACA4058
:104260006BD05AF402FA2B7A11BD041DE265B40E2C
:10427000BD023DFC55B8950DD16582987C0DAD47CA
:104280001B90390836A24D6873A793CEF03A7A0393
:10429000BDC97F6D4116DE1E5B516E10E475FAD705
:1042A00017BCF5BFE4E5FF81FF81FF81FF81FF813E
:1042B000FF9BE0FA8AC6152D2BA834599A3C6D70E5
:1042C0005A74DAA8B4F16953D266A4E9D31E4C7BC0
:1042D000248D364526D2144599D44988C6C8148100
:1042E0001112937F9896D2A60914C232DAA4A011B3
:1042F0000A41A6F8D9221446C1261687917F1209D1
:10430000BF49A57048AE84937F325918210F21CC44
:10431000C650A290480A788686CA57A5BDB5B26035
:10432000A5EED9A455EB571D5A35F979F3F31F3F84
:10433000FFEDEA6F333232A44898B13043FC330EBC
:10434000E638FF1CEF9F0FC39C0B7322CC47FC7316
:10435000BE7FAE8699EE9F19FEF916CCB7FD739B12
:104360002823633BECFFE59F5FC0FF2FFDF36060F8
:10437000CA3232BE827908E645F87F49D6317F08D5
:10438000CFC8F811A617BEBDB0B7C1F4C1B70F763C
:104390000EA62A0266BF8C0CDDA08C8C5432876678
:1043A0006458C98C16A6834C7546462599A3810688
:1043B000A66A9C30099ED0111E44CFD5FE778EF799
:1043C000DB21042170238D30122131E2380EFB7085
:1043D0001BF6E256DC829BB10737E1BBF80EBE8DBF
:1043E0001BF12DDC80595C8F6FE21BF83ABE867F93
:1043F000C5BFE03A5C8BAFE22BF832AEC1D5B80A4C
:10440000BB7125FE19FF847FC43FE04BF822BE80BC
:10441000CFE37FE3EFF1BFF077F89FF81FD8852B4C
:10442000F0397C169FC1DFE2D3F8142EC727F109BB
:104430007C1C1FC34771193E829DD881BFC1A5F85E
:104440006B7C18FF1D1FC25FE183F84BFC05FE1C4F
:104450007F86FF863FC525F800DE8F8BF127781F0A
:104460002EC276BC177F8CF7601BDE8D3FC2BBF07F
:1044700087B8105BF107B800E7E3F7F17B7827DE38
:1044800081DFC5EFE0FFC2DBF136FC367E0BE7E1F2
:104490005CBC155BF016FC267E03BF8E37E34D78BF
:1044A0002336E30D783D7E0DE7601336E26CFC2A7F
:1044B000CEC2AFE075F8659C895FC22FE2BFE217FC
:1044C000F05ABC0667E074BC1A3F8F57E1E7F0B3BF
:1044D000F819BC12A7E11578395E8697E225F869CC
:1044E000BC181B702A7E0AFF05FF19FF092FC27F27
:1044F000C40BF11FF0EFF193F809FC387E0C3F8AF2
:1045000017E0F9F8113C0FCFC50FE339F8219C8271
:104510001FC4C9F8017C3F4EC2897836D6631D9E00
:104520008567E2047C1FBE17CFC05A7C0F9E8E7F2A
:1045300087A7E1A9780A8EC71A9C916160608ECA2C
:10454000C830C1CC89ED981F4E10E61132351919CB
:104550005530CBA6656454C34EFFCE3F676464609C
:104560009823618E9809FBEC8C8C24D893C8FE406C
:1045700046C612FF5CFA5046C67A981FC1DC302F3F
:10458000236337CC6381F96846C6F1273332AEC066
:104590007E0576D1EF3332C48B32324607E65319AB
:1045A000190FC04C26FBD3B02FCFC8580EFB72D8C2
:1045B0003792F98C30373D9F91B107E6C76B3232A5
:1045C0004EC07E12F6932F6664D406E6BA8C0CD9E0
:1045D0002B90BD3065C68C8CB13053FC937C9333EB
:1045E0001EF78A70374047789CF4F324BC890C226C
:1045F0002B2097E8B0DCAF13D18DD7D1AF33D13DAD
:10460000F00EF226F2B62BFEB7923793B707EC40C6
:104610006C426CF391DF56C46601FB115B26F96DA9
:104620004B6CCCDBDA6F7BE283803FAAFD3E22BE7F
:10463000223E3B32A1C38FC1BE25BE0EF8DD30CA7B
:104640006174643B5E7564395E71AC73BCECC874B4
:10465000BCE478D1F157C70B8EB58E358E0C47BAB6
:1046600063B5E379C72AC7738E671DCF38563AD230
:104670001C2B1CCB1DCB1C4B1D4B1C4F3B163B0C52
:10468000BA7ADD4DDD0DDD75DD35DDAFBA5F7475F0
:10469000BA5ADD55DD15DD655D8DAE5A57A5733B04
:1046A000DC3AB56E846EA46E946EB46E0CCC51F090
:1046B0003D42EE06A89257CB6BE497E557E45701CD
:1046C000AEC0570D9C54C9DDFBEBF7DFDC7F63FF09
:1046D000F5FDD7F6FFBAFF97FD75FB6BF75FDD7F42
:1046E00065FFE5FD35FBABF757ED77F35005DF359B
:1046F00070760570B570E717B87B0D686E006D7D3C
:1047000027DEB5F23AF92FF25FE5D772B81C5F4E9B
:104710005B8E37A735A725A739C793D3947337E79F
:104720004ECEED9CC69C5B390D396C4E7DCECD9C3A
:104730001B39D773AEE5FC9AF34B4E5D4E6DCED56B
:104740009C2B3997736A72AA73AA72DC142357CB15
:1047500047C847CA47C947CBC7C8C7CA63E571F24C
:10476000715430C451B1D4586A0C359A1A458DA48D
:1047700046506A8AA1DC4D4D5224CC589821FE192E
:1047800007739C7F8EF7CF8761CE853911E623FEB4
:1047900039DF3F57C34CF7CF0CFF7C0BE6DBFEB98C
:1047A0004DD4D4B41DF6FFF2CF2FE0FF97FE793041
:1047B00030654D4D5FC13C04F322FCBF24EB983FB4
:1047C000843735FD08D30BDF5ED8DB60FAE0DB070A
:1047D0003B07531501B35F53936E5053532A9943CC
:1047E0009B9AAC64460BD341A6BAA9A992CCD140FE
:1047F0000353354E98044FE8080FA2E76AFF3BC702
:10480000FBED1082E8BE06D5CB403D0DAE97E1FB37
:10481000EF8FDE58F628BF3765FB7C61DFE3FF07CB
:10482000EFAFCAA0D728D6BCBDE61D80CFD6B06BEF
:10483000A2D74E5E3B6D6D2F9C4412596878A4A29E
:10484000FF4044D862915884899138596FB2FF4F24
:104850000D640CA50206207A49A4B290D058F2014A
:104860000ACBFB2B635000C51F84868676E5C07497
:104870003D08268EE9D9760141F2982E92088A3FAA
:1048800089E83F5011829650D412449552E8DEB523
:10489000F341CDE9A7A869DF5253CF5053CED2F1EF
:1048A000E7684D85FF177F0E4EC83960A79F0A87BE
:1048B0009B910D54782315769B0ABD4387DCA56533
:1048C0004D0B654DB0C2379C9073C0C21D88C7594F
:1048D000325113D29329D6F193112F41836032E2E2
:1048E0004DF09FCC0AF43B9848264153602A644A15
:1048F000140953211B87F430153DC6D4FF0746CF5A
:10490000C9F87F76D0ADFF2FCB9F1B2A1629E51261
:10491000C4A1071127DF801342298EFCE1E859A1C9
:1049200062C485238906FEE0B9702C255FB4365435
:104930002C9EC60977F02C481E2E5CD24E205206C3
:1049400030DA763E7383F9CC6AE7D3E936612F0912
:10495000662F0DDC6EBF4308843B8437E128F049A5
:1049600009E633AB67ED53FEFBDAA7B44BED45F533
:1049700094FF55D5C5D3C247097C92810FD3BBEABA
:104980005A740F87938954F215A4FA3DC1AADF2304
:10499000E8C304307ED5EFE1D977F099D5CEA7D31F
:1049A0006DC25E12CC5E1AB8DD7E47D05EEBE7CDFD
:1049B0001B9E2748043E5141FAF86F27F8A54E2365
:1049C0008F4A2452C9173D2DD8F009C1864F68E798
:1049D000039869ED56480CE693D0CEA7D36DC25E1E
:1049E00012CC5E1AB8DD7E8710108CC0671A6FFE7D
:1049F00029FCB55D28ECF0D767CE9CFDE9EDC35FDF
:104A00009FFDE9E77A16ED42A2A4A953A78C18F1FD
:104A100076D2D429EA7E50D87A3AF1536DEBA0EAE7
:104A200095CFB66E547DDE09D9C98F5D3BFD63D746
:104A3000F6FB85B1EBFEFFFCF1917F4725C87EFDBB
:104A4000A7B6B88CB1252D2BB23F7BE163CDF32502
:104A500053DCE3FFB63977AFBDE4BEBAB7DFE81F7A
:104A6000FD3D5B58B367EB0D37337054C980E4E507
:104A70002FBDB4E2A5E5252BEE1FA190DFBCF163AD
:104A8000C98FDF1E7E7D338C929D9B7716ED6BFD6B
:104A9000A9ADC4DDD06FC4C851D3FE50F2128C3F13
:104AA000BCF8C2E0122671F2ACE1D13F5D2A395D5B
:104AB0007CBA74EBC5D682925361FBF39B87B7BA7D
:104AC0004BBE45FB27C60FE83FBA44B166E4A38F4F
:104AD000FE4E32A56454623C33453573764943FC3F
:104AE000EDFA7E88FDA924ACEDA78BADA77E79BF3A
:104AF00064DF37F9F643959E23250DEC7722B581C7
:104B0000595A72573276BAB449FD44C9884491EE75
:104B1000B262262A098D385BF27ED185C325DF7CFF
:104B200070E8F035E781D6922AB782EE3771F1D47A
:104B3000927EF18FA99F543F36BB449F18AF1EA0B1
:104B4000E8AF2AA15C6DE1CDAE8BAD25674BEBBC28
:104B5000FBCFFCD056F24DA4EF4E493F5A5EA2C6A1
:104B6000AAFEB3460C5494CC7F441DDF4F5CADC904
:104B70007B7CE2D258239BFB8FC292CAAF2B4AF2B6
:104B8000F38A4A6EB8EA5D7995472A4BC2C3FA1D8B
:104B90006129962DA1FAD38D9899AD2949EC3F92C0
:104BA000EE4F2926152EE02A8F96B69DFEBCE4DC3A
:104BB0004D676B7DC98FEE92736DAEB2CFBC7277CD
:104BC00061F5D19AEF47D0B347168AE3574B35BF0B
:104BD000FB7763A1EE31D5AA015F34F80AE5519164
:104BE000EE4FCFFD545978F65C71B8B3581655782E
:104BF000B6EDC60C794CC39142058318119BA82FC2
:104C000054EBF55306509A05859AA7EEBAFA2B1A7B
:104C10005C85D7146D372FB9BFFE67E127DE73A51A
:104C2000F5477EFE39CF3A6B9BEBC6CBAF8E28940F
:104C300033FD98795344230A474CD18C8C578B1BF6
:104C4000F266DFA63955D587970AB9BF9DBBF9D360
:104C5000F5CAB379CDDF14141F6E735ECFF33EAC8B
:104C6000626F8DD4E9F31E9D36E081C427EF4CCDF1
:104C70001B9434B091AE52A047DB0389B403AADF82
:104C8000B0A28FF695F5EB47FEF47022BFB9EB1397
:104C9000E7FE9B17B7F92E15D937DFBCC9DEA1A9EE
:104CA0007EA81F321A91082115DF524CAC5CC1CA94
:104CB000113529AF6DD6C07FBEF9FDC1DF97DC9AF3
:104CC000F4AF1AC7C41F96957FFDE48983B6439E4F
:104CD00079C7A67D78F86BDFE401ECE7136262E444
:104CE000BA01D5DB0B1F571585BC7EF6B331BBA7C8
:104CF0007F315751F5A71F1D9FB31BC73DE562A725
:104D0000667C1E7DEB4B4653B3C9FCF9D7AFDCF78D
:104D1000EF9FC649CF9E99ABE6B06FF29D4F3F1F04
:104D2000715451E59EA352ECFE6AD0D9E669BBEA04
:104D3000E7ED9E7F19DF4663C7CDDE7D9FE68A6F74
:104D4000D6C2413FEC1E37E0DBC7AE27AC6A2BDC96
:104D50007BE1ABD71DA757C7978C4C1C393231E983
:104D6000897B3E77F5F7A16DB7FEC97E7EF908F520
:104D7000DD67DFB9E8DDECE08331A3ABFA57EE7E07
:104D80005545A966ACF68D2FD4CD959F0EB50F3D38
:104D9000B45B4539FB7FF1B77F0DFF64B16DFC80DB
:104DA000A8419FCEDDDE38B5EADE27399AFD24061C
:104DB0007FE16AD35151DBE9B34D455993A8DBBB81
:104DC000FB3568263C5ABFA67EEF33FD26D7B00AD6
:104DD00044EDFEBCBA2DFA2F15BA59DB8F9AB5A84F
:104DE000EAF811E7F67E47ABD02CB5EE99C2654BD9
:104DF000973DB1F4C9A57FD85DFF3D42B71ACA22DD
:104E0000B79F3F449DCCABFEF9EEF65C74E419DD30
:104E1000E42C66F7A0B31974834AA32A5CBAD6704F
:104E2000EBC71B9F9CDDBE5EFEC53BF3EF360CD986
:104E30005DDD7843BFEB8FE872DEDEF2CD4A477668
:104E4000CD0BBB4591036AAAFA7DDE56E89BE7BA13
:104E5000A6FAA6F56CE1B96FDCAD9147A3FEB1BB34
:104E60007E847B524262455ADEA0A796FCF0B82CA5
:104E7000E9ABDD93D8DB37471DEDDF90F7F80B7713
:104E8000FA1F965CFE77DE7D57A645F63B3869D65D
:104E90006ED55FFAB9F5D513A83CEC9DFCCDB50FE6
:104EA000946FE65D7F63DFAFE77E458F6FAF7D3741
:104EB00062D4C6474AE7E7516DA25DEEC95792B684
:104EC0007F317CD2AD9FE75311797FAE89EEDFF061
:104ED000F330DFF62F2A47DC78EAF3C9EC0686CAFE
:104EE0001EA8F9FC0FFB362C7B6BD2D93B6F64BF3D
:104EF000B63D46C54DAA9A5C73673B37A8AA66C201
:104F00009D2AB43D5A77EC68D84CF53B2667E9C238
:104F1000920BE5A65253DD42792CAB9573A67463D0
:104F2000C6DDD193C70E311D7BAAFF7864FFF9035C
:104F3000D3C52DB23375BED668D3AD11B54DE831AA
:104F400085DEA4593D42C45E71FC6C3A5B7821F663
:104F5000A79FEA5913EE2F16613CE211533CA38838
:104F6000515786B3A69A2AEED6D163CEF9A65B989E
:104F70009E7A55A59B654AAC6E504D9C4855981A33
:104F80005C37155CC30D85C9C7AAAA2647C773A697
:104F900049531AE2475074A4498D54F20637A402CB
:104FA000F20F3DD2A15968264A40F7A17BD10C04EB
:104FB000ED104D47BF43D3D0543405C5230D9A8C13
:104FC00026A18968021A8FC6A138148BC6A231683F
:104FD000341A8546A211488D18C89418148DA2D091
:104FE00070340C0D454A34040D4683D0403400F52E
:104FF000876C5220398A4411281C85A15014826480
:10500000488A24480C298611CDAB416E0810E987E7
:10501000083F84FB21CC0FA17E08F183CC0F523FC7
:1050200048FC20F683C80FD80FB41F283F04868A97
:10503000A2849F8EC6F0338A44BA21D175D548F830
:10504000E6646261251F3204DFCBE71987998C9CE7
:105050003E53D9FAF0BE324D35938F12ED9425228E
:10506000F1CF5B2639FF7C36166EA53C92F608130D
:1050700085FEF3D0F45F2BCD9CBCC068B21A6639B4
:10508000659CA662ED16A389339186CFA18151E478
:1050900083436B51333A8C7C54548D701E00301E08
:1050A0003BB6B692E1501BDD2C19F42BE25879ADDA
:1050B00032188F103CC629FC6B436413B576C65377
:1050C00014879AD079F428CAE0F194AF034FD31231
:1050D00089C37131E9FC8311B93A18E4D0A12F9B3F
:1050E0007934617DD67AEF7AAFD75B59C97259DED0
:1050F000AF3C5F79C8405CD2D71C62E5E9B9E9B939
:10510000E42E192A5E0CB4058402523B2B103CB8E5
:105110002E802A2BBDB0EAF5081D39327B36E2C855
:105120005B11A77720EEC8ACD9DFB4726E80B030C7
:10513000A3D16AE5381D271085DD26D6EC90B4632F
:10514000070BC3ED76FAEDB063052B67E56E95535B
:10515000D7558BAEFA493D23BD940FDA80A933DED3
:1051600064143E85FF4ECE60CC32A60304088D2623
:1051700001847FD84B364933F6767D5EAB88AC6EC2
:10518000D58E15910D9266A9A72B5E8069DF46D555
:105190004436D06D1E69CF78955BD0C864EC99FF1A
:1051A000A9498FFE1CAC6FBD825891808F12768703
:1051B0005ECE82E7B9EEBCBDB88D86F890ADCFA2C9
:1051C0007CA61EF03AE737B3C95EA191B3C1911333
:1051D0000C4D322FF200B8989EF1BDBBDF83588092
:1051E0003EC2C33F3024BF1C0D91F58C3F26DD200D
:1051F0007D0DD3381107B87A90970712FD187710F4
:105200008045F8D37679FC58C0E9B91498FA6EF164
:105210001A20AC05E953260E0C0D965D09D61D1516
:1052200045298EA84DFA42C3DC335130BCB8415EEB
:1052300015E3D4B95567A646D544D5889F79B05CA7
:105240005EBEF82A4587864544D0F4EABC0A4D85FF
:10525000A65689BD61B7236ED16D37E1F5BC9F605D
:105260004FCFB99013CCDF47F9A8B5A8111D45EB76
:1052700049713360966EEEC05A0D727688E7B3A915
:10528000479370D2DAA9B56393D46B0738D16BAF6B
:105290003A7502B8556E15AB6A6E6E7E9965B3B2FB
:1052A0007C3EDF37DE4F7CBE90BBAFDF1518E8E1F8
:1052B000D5885BC18F2618F7DD17A30A97AFD841B1
:1052C000A049D624BBEF98CA2D6767B639B85C6E83
:1052D00013B79EC300C93E122BC11A6A753279B842
:1052E0005C2E97486A6B5F7EF924A773CA49EAB1BE
:1052F00092E65AE5CB1B3904B905F5C8C43D689C54
:105300000FD91BD31E3F42E6F82887DE2355721EB5
:105310008EE5E156B7F89B7544F810712F70B338DD
:1053200079373CC38DAD476E05AB61333D5A0FC134
:10533000D72BE0DDA082474AB209733E5F42825616
:105340002B78D3ED2632138E6A4F0AE46E95D7EB95
:105350007492088994CBE41A28A35EECD4513EECF5
:10536000256F2055B56B4076952F67556E9D335050
:1053700007BA839B8F441F40DF99819184DA486D7F
:10538000C15DF19315A98C43EFD01B4DD9269263D3
:105390005DF127A427A41BA551AA285582EE859765
:1053A00096AEF0F0B1EF0670A2CD684727FD691206
:1053B000669D063448A809895046945CCA7957BD51
:1053C000C9AF9088AFE76454C73051E29906CD92D7
:1053D0009A8D9BB6E496387C94177B312BAF89DA93
:1053E00094999BEED04F4B48CE7ECD47B549C1B77F
:1053F000439AA4B50947B373E02F114535C96A959F
:1054000009B3EF5F2CEB173E502A3B7AACAA9AFD0A
:10541000D4B83E3B27A66A384496D483BDB37D9862
:105420005758C20C81385F0FEAADF0D4366F6AAEC0
:10543000DCEB5799FA272DB5A8CE0F1A747EC071F0
:105440007C92E22856BE6E53ECC9EBF8064DB2834F
:1054500043D9D9D9CFB7B4782EE44749369E3B77A4
:10546000FA1CDD36B8996E6338B7D163D470D35A5D
:10547000294A2E57A9AAAA3096CB753A8C291FF132
:1054800058550CF1B0CE89BDEBD73737EBA0AD54F2
:1054900072ADAD0E4754D4FAAC6689D04D5B450E63
:1054A0007D54CD725F82F747EF75AFC723540AE191
:1054B000FD5E1CA8D4128914069121E0498D977ACB
:1054C000880C01AFD73B9DE5E56D6D9C7FE81D4ED7
:1054D0005DF93D1D598431A1AFAA6A6A12F0D84B1B
:1054E000E8AB629A02958E1FB55C23DF07D96EF197
:1054F00057CF35713EAEA595F4C6219CD48F17BA0F
:105500004220D388ADA59E30507BC689DEE2B437F9
:10551000F0F211D946B7D1CD92199208BA2B5EA8F4
:10552000DF97517D2F317EECA408AC23974B456368
:10553000D17DA27A85D64FD1EAC79B40E73CD6C839
:105540006709895932E441F492663717218757F089
:1055500090C5E3D9E0FCD1A51B37BC6F924746CE7E
:10556000189A89EE4A482E1AC150779BAB7C2C774B
:10557000B7F92593468FA621141E1E2591D372C21A
:10558000E9B5FBCECA7D50CDDA486BF421098DAA6E
:10559000114A422A54E1741B38AA4D167D93930098
:1055A0000A4AA8F5D6F5EBF5BFAC7E56778F6E327A
:1055B0003779566476B682537079DCA96C97D1A599
:1055C0006339E89760FF5A6EAC6E806AB80A5EE98C
:1055D0008F0A9D138A2F1FE35CFBF0C0D8BA35C831
:1055E00072E094AD1902CE6ACDCD3518D2D35353A3
:1055F000059CD5909B6EB0A6E7A616729C976B8310
:1056000079BD7EF66C278C76BF2B667F43AABC0FD4
:10561000A81DE07B1DB79A5B6254A8826D6F34A908
:10562000DC2177C36E87DCDDB97CEA9901D74914A8
:1056300074F50FB82612EC12017B989C52F0F520FD
:1056400082EB70739D814DE712400411F3ADC96484
:1056500065735BCB489FE427E2B2B3A1B38CF0B192
:10566000376FFA5ABC5F9B4C2662383FBD3E10BE76
:10567000C1A38B7C844C2696BD75AB036D32B2F210
:105680005B11013C450915E9C489CA4A82A7FC415E
:105690007662462523E49FC94451D1D142FE353577
:1056A000499A4D46CA175D2DE41F649190B560413B
:1056B000E2ADF46EF2EBEABD809BCB457191E0F474
:1056C00070AE5ED1453F8E7403A947E59EECEA2992
:1056D0003F5E7FF1C082BEF267751E872A19A2EB7A
:1056E000013DA9E3DDDFCFF7253E27C81A4038C1C9
:1056F0007A4EFF05B95C2CC6FC904A094ECE8A5BF7
:10570000F822047A21A4506466AE5BF7C10756AB59
:10571000C3213CCF607DE6BF3E586C351069817176
:10572000F9F2AD5B172F5EBF1EE07F79F8AD888B75
:1057300063AE0FF0DBC7E7747A3CB76F37360A68A1
:105740001FE5D479A4B7C31AC305FCD8B1C40F129E
:1057500049C07F632F103F489A831D6C34EA600470
:10576000471F84A7D3C391086DE58C1C89644F370C
:10577000FB6BB8102E975B0EF537B335B355D3D806
:10578000816915D544817C24F460062A2364B6A976
:10579000672B4B9A63AA221BAE0E6D1177C5109A28
:1057A0000EE84E89905424974586440D88193AF3A3
:1057B000DEE13188C35091A49C9C5FA36BA4AA86B0
:1057C000E6C6FB5E72BC645D50D210FF6983CA3DC1
:1057D000E3C40F972BA118B315FFB899B135CB9837
:1057E00065CC34D6F01638D4ECF104CB69964097EA
:1057F000E00216F67ADBDA5E7E392097F49136FA0B
:10580000E58DA7CF9DADB8DD74B7E9C59748F436EF
:10581000359D8BAFD034C99A642F6D26D1DB24F32C
:10582000F92A2A84C8F70983AAD008914FFA9F8FD2
:105830009AA58BD1C9A13CA51A538DAF1AE7CF27E2
:10584000362720E831BFC4C8A9E01D14570D1DA498
:1058500011FCD0CD0230B28DF5F593F93F6E4EB00C
:1058600059E72CD039492F947A88CFBBD27B31E9C4
:10587000C2F5FE7F81AED71D8836A42A763DA728C3
:105880008984744F12A31249BD9CF2499A49F70CBE
:105890005C983FB7966D62732FB4B509719CE4E0D4
:1058A000E4F5AAF3936FF99B849015727EDC779FE1
:1058B000482464859C2570DF3151ABD74BECDED694
:1058C000D6DADA08A3B696A40DE966ADA2C6F0C68C
:1058D000F05AA5546AB59EA9E88862A92737BD4247
:1058E00013141F41CA76AF9E04AF87AA421C42F927
:1058F00082E902309F5DECD37004615E57AFE85AD5
:105900005D3A64885A7BB65B2EDA2472228FCC8D86
:10591000D291013148CA756EC1A96150B7E542956F
:1059200034C11471A24EF80DA60F4CB9A6A750149D
:105930005202C85057012A9480BE4641A35B7804A6
:105940005A984E279737350547859C25F555C763E7
:10595000EFF452DF59EE18449556E7E46671C387B9
:105960002B95015AB20EBFACACC5109F2ABE7F5515
:1059700056CAE5B382EA472523674924DF539E5A76
:10598000989B3ED925F510E3F5165F04A01A76C35F
:1059900037434DCD8367510803D476A371F2569BEC
:1059A0003E8B54AFD946A351389E7584442B89D978
:1059B0000EC3389D7A96653B489D3A126452A98A77
:1059C0001F7C17E7E38774FEA03887BE0F646C471F
:1059D000FFF348095D004F049018AEA870437F1292
:1059E000C8480C0762C96824BDCBC7FF09072B75DF
:1059F000AD6172BF97A0EA4383A67AC8EF59D0DBA6
:105A000024F041B7E54147E91E7BA4BFADCF223961
:105A1000D3496F3F78A45F3DD82C61E55EDCB3CD00
:105A2000C912714BE5EEAD326B2A3237B5D13DE389
:105A3000047AA6B22F9F92E5D3477AC76B2AA06A51
:105A4000A9AA62847F6D3DDC90B39359D20B3FD5F8
:105A5000FFC5E4EC86158928AAD3FF5652E53AA083
:105A60009EABE0AC622E921BEC6F0BA8A326885A6B
:105A70001177070698550077ABE74EE89DD0CE0F1B
:105A8000F0782A3BBDC7230DC6F75345463641CAB9
:105A900082508A80CA1DD92060188E68A2D5023D26
:105AA00070AE07A87537B1DA9302BD536732EA1DAD
:105AB0007A074575D69F348560FE77DA38CE842E16
:105AC0002022C10B93F82218FF32C48E0C95D15FAF
:105AD0008830C4CAEAD5C1EF2360E20AF9DECE718C
