:100000000C9453450C949E460C9479450C94794578
:100010000C9479450C9479450C9479450C94515C79
:100020000C9479450C942E550C9479450C94794593
:100030000C9479450C94E5500C9479450C947945D1
:100040000C9479450C9479450C9479450C94794538
:100050000C9473570C9479450C9479450C9479451C
:100060000C9479450C9479450C9479450C94794518
:10007000090212000101008096090400000000003E
:10008000000012011001FF000008C016DD0500018C
:1000900001020001160351005500490043004B00C6
:1000A0004400450056003100360016036F00700012
:1000B00074006900780078002E006F0072006700FD
:1000C000040309042D2D3E53776974636820544F4F
:1000D000204156520A005553425F5345545F4C41EC
:1000E0004F4445523A0A005553425F4156525F52BF
:1000F000455345543A0A005553425F4D4F44455FBE
:100100004156523A0A005553425F4D4F44455F53A2
:100110004E45533A0A005553425F4352433A2061D9
:100120006464723D30782530386C78200A0055536D
:10013000425F42554C4B5F55504C4F41445F454EDA
:10014000443A0A005553425F42554C4B5F55504C60
:100150004F41445F494E49543A2062616E6B5F7370
:10016000697A653D30782530386C782062616E6B35
:100170005F636E743D3078257820656E645F6164DE
:1001800064723D30782530386C780A005553425FF0
:1001900042554C4B5F55504C4F41445F494E49547A
:1001A0003A2025692025690A0075736246756E63D9
:1001B00074696F6E52656164206C656E3D256920BF
:1001C00074785F72656D61696E696E673D2569203F
:1001D0000A0075736246756E6374696F6E57726953
:1001E0007465205245515F5354415455535F4255F5
:1001F0004C4B5F55504C4F414420616464723A202F
:1002000030782530386C78206C656E3A202569206E
:1002100072785F72656D61696E696E673D25690A06
:10022000004552524F523A75736246756E63746957
:100230006F6E5772697465206D6F726520646174AA
:1002400061207468616E20657870656374656420F0
:1002500072656D61696E3A202569206C656E3A2081
:1002600025690A007372616D5F62756C6B5F7365FF
:10027000743A20616464723D30782530386C780AB5
:100280000D007372616D5F62756C6B5F7365743ABC
:1002900020616464723D30782530386C78206C655C
:1002A0006E3D256C690A0D007372616D5F62756C3D
:1002B0006B5F636F70795F696E746F5F627566669E
:1002C00065723A20616464723D30782530386C780C
:1002D000206473743D30782570206C656E3D256C0C
:1002E000690A0D007372616D5F62756C6B5F636F9D
:1002F00070795F66726F6D5F6275666665723A20CF
:10030000616464723D30782530386C782073726394
:100310003D30782570206C656E3D256C690A0D00B6
:100320007372616D5F77726974653A20616464729B
:100330003D30782530386C7820646174613D2578D3
:100340000A0D007372616D5F62756C6B5F77726925
:1003500074655F656E643A007372616D5F62756C9F
:100360006B5F77726974655F73746172743A206150
:100370006464723D30782530386C780A0D007372F1
:10038000616D5F726561643A20616464723D3078CA
:100390002530386C780A0D007372616D5F62756C80
:1003A0006B5F726561645F656E643A0A00737261C7
:1003B0006D5F62756C6B5F726561645F73746172AF
:1003C000743A20616464723D30782530386C780A64
:1003D0000D007372616D5F62756C6B5F6164647256
:1003E0005F726573746F72653A20616464723D3048
:1003F000782530386C780A0D007372616D5F627514
:100400006C6B5F616464725F736176653A206164EE
:1004100064723D30782530386C780A0D000A00305F
:10042000003100737265675F7365743A20616464BC
:10043000723D30782530386C78006372635F636892
:1004400065636B5F62756C6B5F6D656D6F72793A3A
:100450002062616E6B3D30782530327820616464B3
:10046000723D30782530386C78206372633D307887
:10047000253034780A006372635F636865636B5F7D
:1004800062756C6B5F6D656D6F72793A2062616E3B
:100490006B3D30782530327820616464723D30786D
:1004A0002530386C78206372633D3078253034789D
:1004B0000A006372635F636865636B5F62756C6B90
:1004C0005F6D656D6F72793A20626F74746F6D5FE6
:1004D000616464723D30782530386C7820746F70B8
:1004E0005F616464723D30782530386C780A000AA8
:1004F000002025303278000A2530386C783A007CAC
:100500000A002E00256300207C0020253032780070
:100510002530386C783A002A0A000A446F6E65204C
:10052000616464723D30782530386C780A002E00A2
:100530004F727068616E656420524C4520636F6431
:10054000652061742073746172740A00524C4520F6
:100550006465636F6465206C656E3D256C69206120
:100560006464723D30782530386C780A000090045D
:1005700008C230A9000020120020D208286008C25A
:100580003129FF000A0AAABFE5577F48BFE3577F1A
:1005900048A68CE220A9019F932D7EA97F9F9A2DCA
:1005A0007EC230689F982D7E689F942D7EA522295B
:1005B0000F00186A9005186900049F962D7E8A180E
:1005C000690800858CA97F00855AC230A9F360852F
:1005D00058A920008500A92000291C004A4A0A0ABF
:1005E0000AAAA00000B7589D7203C8C8E8E8C60070
:1005F000C600D0F1E220E66F28604808E2208BA90F
:100600007E48ABA920291C85D8A97F855AC2308A8B
:100610000AAABF5C7E7F8558A00000B75829FEFF5C
:100620008D0C02C8C8C23098C9FF01B05BE220A996
:1006300000EBA5D7F00CA5D73A85D7C901D0174C48
:100640001E01C230B75829F000D00BB758290F004F
:10065000180AAA7C7302E220B758AAADD600F0357A
:10066000BF39827FEBA92029E305D8EBC230AE0C5D
:10067000029F721D7E186910009FB21D7EE220C885
:10068000E8E88E0C024CBB00E22064D79CD600E662
:1006900072AB286860BF39817F186930EBA9209060
:1006A0000002090129E305D8EBC230AE0C029F72AB
:1006B0001D7EE220C8E8E88E0C024CBB00C230C8A8
:1006C000B75848C8B7588D5900688D5800A0000029
:1006D000E220A90485D7B758484A9004290F186921
:1006E00030C93A90000269068D320368290F1869F3
:1006F00030C93A90000269068D3303A97E855AC23B
:1007000030A9320385584CBB00C230C8B75848C81E
:10071000B7588559688558A00000BBE220A90A8512
:10072000D7C2308A0AAAE220B7587CC101D101D2CF
:1007300001D301D401D501D601D701D8014A9007D0
:10074000182901693048C2308A4AAAE220689D32DD
:1007500003E8E00800D0C6A97E855AC230A932035A
:1007600085584CBB00E220C8B7581A1A291F85D7F4
:10077000C230C8B75848C8B7588D5900688D58005E
:10078000A000004CBB00C230C8B75829FEFF8D0C3A
:1007900002C8C8A90000E2209CD6004CBB00E220A1
:1007A000ADD60049018DD600C84CBB00E220C8B7C9
:1007B000580A0A291C85D8C84CBB004C1E01AE0C37
:1007C00002E8E88E0C02C8606008C230E220AD1A70
:1007D000008920F001E82090000028601E011E0220
:1007E0003602FD01080252019D01440293025302A8
:1007F000530253025302530253025302C230C8B78A
:100800005848C8B7588559688558A00000BBE220F1
:10081000A90585D7C23164026404B75829FF008551
:1008200000F02CE604A500A504290F00C90A00D099
:1008300008A504186906008504A50429F000C9A0CC
:1008400000D008A504186960008504C600D0D4E271
:1008500020A505290F8506D002A9F01869308D3230
:1008600003A5044A9004290FD006C506D002A9F0BA
:100870001869308D3303A504290F1869308D3403AE
:10088000A97E855AC230A9320385584CBB0008C2E4
:1008900031AD5802F00EC90100D006A234002090FC
:1008A0000000CE5802286008E2208BA97E48ABA544
:1008B000F0D06AA97F85DBC2308A0AAABFD27F7FC7
:1008C00085D9A00000B7D9C8C829FEFF85E5B7D9EA
:1008D000C818E2200A85E7B7D9C8290F1AAAA900C3
:1008E000186940CAD0FA85E9B7D9C8291FD003AB27
:1008F000286085EB64EC64EF202C0620C305205BA8
:1009000006E220A5EC1A85ECC5EBD0EC64ECE6F031
:10091000A90185EF202C0620C305205B06E22020DC
:100920002C06205B06C231AD6203A2FFFFE8E01097
:1009300000F0104A9000F748DA8A180AAAFCDD0392
:10094000FA6880EAAB2860FF03FF03FF03FF03FFA1
:1009500003FF03FF03E80453049B0400042A04FF7D
:1009600003FF03FF03FF03FF036008C231E22064BB
:10097000EF202C0620C305205B06A5EC1AC5EB90E2
:100980000002A90085ECA90185EF202C0620C305F3
:10099000205B06286008C231E22064EF202C06208C
:1009A000C305205B06A5EC3A10DAA5EB3A85ECA965
:1009B0000185EF202C0620C305205B0628605A081D
:1009C000C231E220202C06A00000B7DCD003287A38
:1009D00060A00000B7DFA00300D7DC90000488B758
:1009E000DC3AA000001A97DFB7DCC901D00CAD6378
:1009F00003100718B7DF690F97DFA90185EF20C340
:100A000005205B06287A605A08C231E220202C06B5
:100A1000A00000B7DCD003287A60A00000B7DCC9D2
:100A200001D00CAD6303100738B7DFE90F97DFB7CC
:100A3000DF3AC9FFF007A00200D7DCB005A0030031
:100A4000B7DCA0000097DFA90185EF20C305205B7C
:100A500006287A60485ADA080B8BC231E220A97E58
:100A600048ABA00700B7DC180AAAFC7226AB2B28FB
:100A7000FA7A686060DA5A08C231A5E729FF006592
:100A8000ED8D2A03A00400B7DC8D2F03E220C8C837
:100A9000B7DC8D3103A9058D2E03A2020020900042
:100AA00000287AFA60DA5A08C231A5E729FF006502
:100AB000ED8D2A03A00400B7DC8D2F03E220C8C807
:100AC000B7DC8D3103A9068D2E03A2020020900011
:100AD00000287AFA60DA5A08C231A5E729FF0065D2
:100AE000ED8D2A03A90000E220A00100B7DC8D2FC4
:100AF00003A00000B7DF2D2F03C23129FF000A69D0
:100B00000C00A8B7DC1865D98D2F03E220A5DB8D7A
:100B10003103A9048D2E03A2020020900000287A40
:100B2000FA60080509053805670508050805080580
:100B300008055ADA08C231A90000AA9D2903E8E88D
:100B4000E008009000F6A5EC291F00AAA90000E02B
:100B50000000F0061865E9CA80F51865E585ED8D99
:100B60002A03A5EF290118690800A8E220B7DC8D47
:100B70002D03A9048D2E03EE2903A9078D2C03C292
:100B800031A00A00B7DC65D98D2F03E220A5DB8DEB
:100B90003103A202002090000028FA7A605A08C2AD
:100BA00031A5EC291F000A690500A8B7D965D985C8
:100BB000DCE220A5DB85DEA00600B7DC85E1C230E3
:100BC000A00400B7DC85DFE220287A605ADA08C288
:100BD00031A0000098E220B7DC29070AAAFCB3057F
:100BE00028FA7A6008C231290F000AAABF39827F29
:100BF000856BE220A97F856DA00000B76B851CC8BE
:100C0000B76B851DC8B76B851EC8B76B851FC8B786
:100C10006B853DC8B76B853EC8B76B8521C8B76B80
:100C20008522C8B76B8523C8B76B8524C8B76B8589
:100C300025C8B76B8526C8B76B8529C8B76B202C2C
:100C400012C8B76B8549C8B76B854AC8B76B854B67
:100C5000C8B76B854CC8B76B854DC8B76B854EC898
:100C6000B76B854FC8B76B8550C8B76B8551C8B790
:100C70006B8552C8B76B8553C231A5214829F00056
:100C8000EB856568290F00EB180A90048563A5229F
:100C90004829F000EB856968290F00EB180A9004D9
:100CA0008567A52329FC00EB855BA52429FC00EBC7
:100CB000855DA52529FC00EB855FA52629FC00EBB9
:100CC0008561A5292907000A9005EB85272860087A
:100CD000E2208502C2318A85040A6504AABF94868F
:100CE0007F8504E8BF94867F8505E2207820890708
:100CF00020D107582860E220A68CA9019F932D7E61
:100D0000A5069F9A2D7EC231A00000B70485076515
:100D1000049F982D7E38C8C8B704E5079F942D7EA0
:100D2000A5022903000AA8B963009F962D7E8A18A0
:100D3000690800858C6072057215721D722508E2C3
:100D4000208BA98148ABA97E29018D8321C231A5C1
:100D5000022903000AAABFC9077F8D8121E220A5CD
:100D600002293C8503C231A5058535A00200B704E0
:100D7000850765048534C8C8B70438E507850029A8
:100D8000FEFFAAA00000E220B7348D8021C8B7344E
:100D900029C305038D8021C8CACAD0ECC231A5027F
:100DA000290300AAF670E220A97E2901A502890282
:100DB000F005291C0A8005291C0A0A0AC23129FFEC
:100DC00000AAA5058535A00400B70485076504853C
:100DD00034C8C8B70438E5078500A00000E220B792
:100DE000349F72037EC231C8E8C600D0F0E220E62C
:100DF0006FAB2860DA08C230E2209C2121A20001FA
:100E00009C2221CAD0FA28FA6008C231E220A90047
:100E1000A00002A27203206027286008C231E220ED
:100E2000A900A00008A27205206027286008C2312E
:100E3000E220A900A00008A27215206027286008FF
:100E4000C231E220A902A00008A2721D206027285A
:100E50006008E22085008BA97E48ABC2317898A457
:100E60008C99962DA50029FF0085000A0A186500B7
:100E7000AABF77867F850099982DE8BF77867F99EE
:100E8000992DE8E8BF77867F99942DE220A90199F2
:100E9000932DC2319818690800858C58AB286008DA
:100EA000C230E220A51A253AD00CA520290FC90F7F
:100EB000F006E620286028602860A51A253AD009A7
:100EC000A520290FF004C6206060E6196008E22022
:100ED000A9808D0021286008E220AD104258A5208D
:100EE000297F8D0021286008C231A9FF038D2C00C5
:100EF0008D30009C2A009C2E009C30009C7E009C23
:100F000080002860EC1A001009A90300853A204DE2
:100F10000960A90300853A20320960088BC2314874
:100F2000E220A97E48ABC23168850086028404298C
:100F300000FFEB85060A186506AABF97867F85061F
:100F4000BF98867F8507A00000B70618650685094B
:100F5000C8C8B7061865068514C8C8B70618650658
:100F6000850BC8C8B706850DA50029030085110AA1
:100F7000AAB563850FA51D2907000A0A186511AADD
:100F8000BF4B867F29FF008511A50229FF0385023B
:100F9000A504290080D03AA90000A602F006186531
:100FA00011CAD0FA4A18650F78A68C9D962DA51403
:100FB00038E5099D942DA5099D982DE220A5089D51
:100FC0009A2DA9019D932DC2318A18690800858C3C
:100FD00058A504290020F0034CFA0AA50B8509A5A1
:100FE00008850BE220A500293C850CC231A50D85A2
:100FF0001229FF00850FA91F0038E50F0A850FA5EC
:10100000044829FF030A8504A5002903000AAABF92
:1010100086867F186504AA688504A00000C231B7DF
:101020000929FF0318650229FF03EBE220050CC222
:1010300031EB9F00007EE8E8C8C8E220C61210DD50
:10104000A50D8512C2318A18650FAA9818650FA8D8
:10105000E220C61310C7C231A504290010D008A58C
:1010600000290300AAF670A504290040D055A51157
:1010700029FF004A4A4AAABF8F0B7F850DA00400B2
:10108000B70618650638E51429FF01A8A5004A4AE5
:10109000290700AAF009A9000018650DCAD0FA298D
:1010A000FF01186972038509A5004A900529060009
:1010B000AAFC590BA5078501A514850020E427E6A5
:1010C0006FAB2860610B660B6C0B710BA900008085
:1010D00016A50D4A4A8010A50D4A800BA50D4A851C
:1010E0000F4A18650F8000850F186509AAA50F180B
:1010F000651485149838E50FA860000008002000EA
:101100000002C231A900005BE220A98148AB9C012A
:1011100042A532C231A5498D2321A54C8D2621A59A
:101120004E8D2821A5508D2A21A5528D2E21E220F9
:10113000A54B8D2521A5548D0621E220A61AE8860F
:101140001AA51D8D0521A51E8D2C21A51F8D2D21D4
:10115000A5218D0B21A5228D0C21A5238D0721A56D
:10116000248D0821A5258D0921A5268D0A21AD3DB7
:10117000008D3021AD3E008D3121AD4100291F0988
:10118000808D3221AD4000291F09408D3221AD3FB5
:1011900000291F09208D3221A52A8D0D21A52B8D17
:1011A0000D21A52C8D0E21A52D8D0E21A52E8D0F87
:1011B00021A52F8D0F21A5308D1021A5318D102156
:1011C000A5298D0121A5448543F019C231A5458D7E
:1011D0000942A5478D0742E220A542093085428D8C
:1011E0000042800BE220A54229CF85428D0042E2D9
:1011F00020A9808D002120081320C11020EF13E2C8
:1012000020A520297F8D002120882020CC20C231DC
:10121000A5D52903000AAAE220FC0A296008C231E8
:10122000A58CD0FC286008C231A51AC51AF0FA288E
:101230006008C231A900008F8C007E8F8E007EA0D6
:101240000008A2932D2060272860010D880FC20F8F
:10125000610DB80D570E020D8511BC11F3112E1141
:101260005411010D010D010D010D010D60A90118B1
:101270008D0043B79000297F00F05185F3A910003D
:101280008D0543C8C8B7900085F58D1621C8C8B72D
:10129000900085F78D0243C8B79000C8C88D0343FE
:1012A000E220A9808D1521A9018D0B42C6F3F01F04
:1012B000C231A5F569100085F58D1621A5F71869CD
:1012C000100085F78D0243A910008D054380D16081
:1012D000A901188D0043A940008D0543C8C8B790E7
:1012E0000085F38D1621C8C8B7900085F58D02439F
:1012F000C8B79000C8C88D0343E220A9808D15218E
:10130000A9018D0B42C231A5F369000185F38D1649
:1013100021A5F51869400085F58D0243A940008D8F
:101320000543E220A9018D0B4260A901188D0043FD
:10133000A980008D0543C8C8B7900085F38D16219C
:10134000C8C8B7900085F58D0243C8B79000C8C8DB
:101350008D0343E220A9808D1521A9018D0B42C286
:1013600031A5F369000185F38D1621A5F518698073
:101370000085F58D0243A980008D0543E220A90177
:101380008D0B42C231A5F369000185F38D1621A5AD
:10139000F51869800085F58D0243A980008D05430D
:1013A000E220A9018D0B42C231A5F369000185F34A
:1013B0008D1621A5F51869800085F58D0243A98059
:1013C000008D0543E220A9018D0B4260A901188D13
:1013D0000043A900018D0543C8C8B7900085F38D6F
:1013E0001621C8C8B7900085F58D0243C8B7900094
:1013F000C8C88D0343E220A9808D1521A9018D0B5A
:1014000042C231A5F369000185F38D1621A5F518B7
:1014100069000185F58D0243A900018D0543E22095
:10142000A9018D0B42C231A5F369000185F38D1628
:1014300021A5F51869000185F58D0243A900018DEC
:101440000543E220A9018D0B42C231A5F3690001D9
:1014500085F38D1621A5F51869000185F58D0243E8
:10146000A900018D0543E220A9018D0B42C231A5DF
:10147000F369000185F38D1621A5F5186900018532
:10148000F58D0243A900018D0543E220A9018D0BD2
:1014900042C231A5F369000185F38D1621A5F51827
:1014A00069000185F58D0243A900018D0543E22005
:1014B000A9018D0B42C231A5F369000185F38D1698
:1014C00021A5F51869000185F58D0243A900018D5C
:1014D0000543E220A9018D0B42C231A5F369000149
:1014E00085F38D1621A5F51869000185F58D024358
:1014F000A900018D0543E220A9018D0B42C2316094
:10150000A901188D0043B79000F0288D0543C8C885
:10151000B790008D1621C8C8B790008D0243C8B798
:101520009000C8C88D0343E220A9808D1521A90130
:101530008D0B42C23160C8900760A901188D00432D
:10154000E220A9818D1521C231C8C8B790008D163F
:1015500021C8C8B79000AAC8C8C8BF00007E8D18AF
:1015600021BF40007E8D1821BF80007E8D1821BFD5
:10157000C0007E8D1821BF00017E8D1821BF400163
:101580007E8D1821BF80017E8D1821BFC0017E8D08
:101590001821BF00027E8D1821BF40027E8D1821C8
:1015A000BF80027E8D1821BFC0027E8D1821BF0032
:1015B000037E8D1821BF40037E8D1821BF80037EDE
:1015C0008D1821BFC0037E8D1821BF00047E8D18A9
:1015D00021BF40047E8D1821BF80047E8D1821BF5D
:1015E000C0047E8D1821BF00057E8D1821BF4005E7
:1015F0007E8D1821BF80057E8D1821BFC0057E8D90
:101600001821BF00067E8D1821BF40067E8D18214F
:10161000BF80067E8D1821BFC0067E8D1821BF00B9
:10162000077E8D1821BF40077E8D1821BF80077E61
:101630008D1821BFC0077E8D18216008E220A97E89
:101640008592C231A9932D859000A48CF059A48E67
:10165000B790005A290F000AAAC808FCDF0C287AA4
:10166000A90000979000C8C8979000C8C89790003C
:10167000C8C8979000C8C898858EC58C900006642D
:101680008E648C8028E220A9808D0142EA9004AD0E
:101690003721AD3F21AD3D21EBAD3D21EBC23129DD
:1016A000FF01C9C700900005C904019000A7286088
:1016B000E2209C2121A272038E0243A200028E0529
:1016C00043A97E8D0443A9008D0043A9228D0143C7
:1016D000A9018D0B4260E2209C02219C0321A27390
:1016E0002B8E0243A220028E0543A97E8D0443A9BE
:1016F000008D0043A9048D0143A9018D0B426000B8
:1017000008001000100020C231A5232903000AAAF6
:10171000BF7D117F8D0543E220A65B8E1621A2724C
:10172000058E0243A97E8D0443A9808D1521A90150
:101730008D0043A9188D0143A9018D0B4260C23170
:10174000A5242903000AAABF7D117F8D0543E2204D
:10175000A65D8E1621A272158E0243A97E8D0443CA
:10176000A9808D1521A9018D0043A9188D0143A9D8
:10177000018D0B4260C231A5252903000AAABF7D55
:10178000117F8D0543E220A65F8E1621A2721D8E69
:101790000243A97E8D0443A9808D1521A9018D00E6
:1017A00043A9188D0143A9018D0B4264726008E2C0
:1017B0002085438544C2312907000A85F30A18654C
:1017C000F3AABF7E127F8545BF80127F85472860C0
:1017D000C23948DA5A0B8BA900005BE220A9814884
:1017E000ABC231A5432907000A85F30A1865F3AA9D
:1017F000FC7C12C239AD1142AB2B7AFA6840AC12B4
:10180000C8008200C112C8008200D6128F00820078
:1018100007130090040713009004071300900407B7
:10182000130090040713009004EA9008E220A92F07
:101830008D3221C231EE8E0260EA9008E220A98F3B
:101840008D3221C231EE8C0260E220A940C6439C59
:101850000F219C0F219C10219C1021A521290F09EB
:10186000708D0B21A52529FC8D0821C231A9C80046
:101870008D0942A982008D07426060A56FF0259C0A
:101880002121A272038E0243A200028E0543A97E8B
:101890008D0443A9008D0043A9228D0143A9018D28
:1018A0000B42646FA56EF0289C02219C0321A27359
:1018B0002B8E0243A220028E0543A97E8D0443A9EC
:1018C000008D0043A9048D0143A9018D0B42646E74
:1018D000A570F038C231A5232903000AAABF7D11E3
:1018E0007F8D0543E220A65B8E1621A272058E0233
:1018F00043A97E8D0443A9808D1521A9018D004344
:10190000A9188D0143A9018D0B426470A571F038AF
:10191000C231A5242903000AAABF7D117F8D05438A
:10192000E220A65D8E1621A272158E0243A97E8D3D
:101930000443A9808D1521A9018D0043A9188D01AB
:1019400043A9018D0B426471A572F015A68CA909FB
:101950009F932D7EC2318A18690800858CE220642D
:101960007260E220AD6D02300E4A90000CA520C9D5
:101970000FF010A5201A852060A520F006A5203ABA
:10198000852060AD6D0209808D6D026008E220AD9A
:101990006D0210FB2860C231DAA699BD953D29FF82
:1019A000000AAA080BFC6F202B28FA6008C231BD80
:1019B0009F3D29FF000ADAAABF51717FFA186951C9
:1019C000718534E220A97F8536C231BD9E3D29FF55
:1019D000000AA8DAB73485A148291F000AAA685A64
:1019E000080BE220A900EBFC82142B287AFAE220F3
:1019F000A5A130B92860CA14FF14051547156A154A
:101A00007615F9147F158A15A415BC155E15C51534
:101A1000A914A814D315E115FB15D31460A6998D4C
:101A20000000AD0000F013BDA73DD007AD00009D44
:101A3000A73D603A9DA73DF00160FE9E3D60A699DE
:101A4000FE9E3D20FF1860C231A8A699BD9A3D694F
:101A5000800048BD9C3D1869800048FE9E3D98204E
:101A6000FF18A699689D9C3D689D9A3D60A6999D2A
:101A70009E3D60A6999D933D60A699FE9E3D482996
:101A8000F0184A90048908F005290749FF1AC23165
:101A90000A90047D9A3D9D9A3DE22068290F8908AD
:101AA000F005290749FF1AC23129FF000A90047D79
:101AB0009C3D9D9C3DE22060A699FE9E3D187D9731
:101AC0003D9D973DBD933D8940F003209B1960A645
:101AD000999D963DFE9E3D209B1960A699FE9E3DD8
:101AE0009D973D209B1960A699FE9E3D9D993D6066
:101AF000A6999D9F3D9E9E3D640A60A699FE9E3DCF
:101B00002901180A90058500BD933D29DF05009D38
:101B1000933D60A699FE9E3D2901180A0A0A850098
:101B2000BD933D29F705009D933D60A699FE9E3D1E
:101B30009D953D60C231A699FE9E3D29FF0020077C
:101B40002460A699FE9E3DBD933D29EF9D933D6087
:101B5000A699FE9E3D9DAA3D293FC93FD003DEAA1E
:101B60003DBDA93D297F9DA93D60A699FE9E3D9D55
:101B7000AC3D293F8500BDAB3D293F8501C500F047
:101B800028B00BA50038E501C920B014800738E55E
:101B900000C92090000BBDAB3D293F09409DAB3DE6
:101BA00060BDAB3D293F9DAB3D60BDAB3D09809D18
:101BB000AB3D60BF923D7E300D8A18692000AAE0DF
:101BC000E007D0EF38608699186008E2208BA97E84
:101BD00048ABA56ED01AC2319CB50020011D20EF84
:101BE0001CA2000020431690000A20881A6499E67F
:101BF0006EAB2860BD933D892000D062BD9A3D4AFE
:101C000090048D0002BD9C3D4A90048D0202BDA44B
:101C10003D29FF0049FFFF186D000218692000C52B
:101C20007E900047BDA43D29FF0018657E1869E835
:101C300000CD0002900035BDA53D29FF0049FFFF02
:101C4000186D020218692000C580900020BDA53DD6
:101C500029FF001865801869E000CD020290000E8F
:101C600020D11BBD933D0940009D933D8009BD934C
:101C70003D29BF009D933DBD933DDA891000F003DF
:101C8000203814FA8699DABD933D890800F00320C4
:101C90002214FA8699DABD933D890400F0032049A5
:101CA00017FA8699BD943D891000F0032016208A0A
:101CB00018692000AA86994C74162860089BA6B55E
:101CC000E220B9A83D0980EBB9A03DC2319F13467F
:101CD0007EB99A3D4A9004E8E89F13467EB99C3D40
:101CE0004A9004E8E89F13467EE8E886B5BB286082
:101CF00008C23186A884AA29FF000AAA0BA90000FD
:101D00005BE2208BA97E48ABC231BFC8847F1869D3
:101D1000C8848534E220A97F8536A20000BD933DAA
:101D20001010C2318A692000AAE220E0E007F00228
:101D300080EBC23186998A184A9004E220859BC2C2
:101D400031A00000B7349D933DE8E8C8C8C020002A
:101D5000D0F2A699BD933D892000F054BD933D106B
:101D60002CA5A829FF00180A90079D9A3DA5A8292F
:101D700000FFEB180A90079D9C3DA5AAE2209DA6B6
:101D80003DC2318044A5A829FF00180A90079D9AFA
:101D90003DA5A8EB29FF00180A90079D9C3D8021D6
:101DA00018A5A829FF000A90079D9A3D18A5A82903
:101DB00000FFEB0A90079D9C3DA90000A8E220A52A
:101DC0009B9DA03D209B19209C18A699DABD933DB0
:101DD0008910F003203814BD943D8910F00320577A
:101DE00020FA8699E220BD933D8908F00320221451
:101DF000AB2B2860BD943D8920D05BC231BD993D9D
:101E00008500BDA13D29FF000A0AAABF27867F18C9
:101E10006927868534BF29867F29FE00C92000B046
:101E200003A920008501A90000E220A97F8536C210
:101E300031A500290E00184A186908000A9005AA61
:101E4000A00000B7349D7203E8E8C8C8C401D0F30D
:101E5000E220E66F6008C23129FF0085000AAA0B64
:101E6000A900005BE2208BA97E48ABC231BFC884C9
:101E70007F1869C8848534E220A97F8536A20000D6
:101E8000BD933D1010C2318A692000AAE220E0E033
:101E900007F00280EBC23186998A184A9004E2204A
:101EA000859BC231A00000B7349D933DE8E8C8C8C7
:101EB000C02000D0F2A699A90000A8E220A59B9D11
:101EC000A03D209B19209C18A699BD933D8910F038
:101ED00003203814BD943D8910F003205720E220E0
:101EE000BD933D8908F003202214C230AB2B28603B
:101EF00008E220BD943D8940F0022860C231BD93C4
:101F00003D290200180A0A8500A52929E000184A7F
:101F10009005050085000A186500DAAABFCC857F08
:101F20008508BFCE857F850EFA18A50829FF001AFF
:101F30004A90058500A50929FF008502A90000A88F
:101F4000C402F005C8650080F78500BD973D29FFF4
:101F5000008502A90000A8C402F005C8650080F74A
:101F60008502BD963D29FF0085040A1865049BAAD9
:101F7000BF24867F8504BF25867FBB8505A5021803
:101F80000A9005186504900002E6068504E220BD6B
:101F9000993D2901EBBD983DC2310A90041865278F
:101FA000850ADAA68CA50829FF001A850CC231A57E
:101FB0000E9F932D7EA50A9F962D7EA5049F982D9A
:101FC0007EA5059F992D7EA50C9F942D7E8A18696C
:101FD0000800858CFA286008C231E220A20000A522
:101FE000A0D00228608502850364009BB977251084
:101FF0000FB97825C5009000088500C231989D73FF
:102000002AC23198690600A8E220C602D0DFA5A046
:10201000850264005ABD732AA8B97725297F99776C
:10202000257AE8E8A00000C603D0C26402A69CC2DC
:1020300031A50229FF00A8B9732AA8B973259D7399
:102040002BB975259D752BDA5A8A29F0014A90041F
:1020500085008A18290C004AAAB97725A40029030B
:10206000007C151B231B211B1F1B1D1B0A9006191F
:10207000732D99732D7AFAA90000E89004E220A547
:10208000021A1A85024AC5A0D0A0869C2860850045
:102090000A0A186500A8B97325F00F9838E90600F8
:1020A000900003A880F1A0EC0480EC60E220BDA6C3
:1020B0003DF04FA49EBD943D3021BDA63D997825AD
:1020C000C231BD9A3D4A9004997325BD9C3D4A900A
:1020D00004E2209974254C3B1CBDA63D49FF99782C
:1020E00025C231BD9A3D4A9004E220997325C23140
:1020F000BD9C3D4A9004E2209974254C3B1CC231A2
:10210000BD9A3D4A900499732BBD9C3D4A9004E2D0
:102110002099742B4C911CA49CBD933D892000D028
:1021200085BDA63D29FF00F073A49EBD9C3D4A904D
:10213000048500BDA63D29FF0018650038E580E252
:1021400020997825C231BD9A3D4A900438FDA43DBE
:1021500038E57E997325B00BBD933D0901009D9331
:102160003D8009BD933D29FEFF9D933DBD9C3D4AA9
:10217000900438E58038FDA53DE220997425BD9393
:102180003D29030980997725E6A0C231BD983D9984
:10219000752598690600859E60BD9A3D4A90041891
:1021A00038FDA43D38E57E99732BB00BBD933D09F6
:1021B00001009D933D8009BD933D29FEFF9D933D08
:1021C000BD9C3D4A900438E58038FDA53DE220994C
:1021D000742BC231DA5A9829F0014A90048500988C
:1021E00018290C004AA8BD933DBBA4002903007C1C
:1021F000B21CC01CBE1CBC1CBA1C0A900619732D54
:1022000099732D7AFAC231BD983D99752BC8900407
:10221000849C6008201C1D20EF1C205A1DE2209C7D
:102220008602646EA90120FF18286008C231E220EE
:10223000A900A02000A2732D206027286008C231C9
:10224000E220A903A49CF006A2732B206027C231D0
:10225000649C649E64A0286008C231E220A903A0A7
:102260000002A2732B206027C231649C649E64A08C
:10227000286008C231E220A900A0C000A2134620B5
:102280006027286008C231E220A900A00006A273DE
:1022900025206027286008C231E220A900A000089C
:1022A000A2933D206027286008C2318500A200006B
:1022B000BFA23D7EC500D007A900009F933D7E8A46
:1022C00018692000AAE00008D0E6286008C231851D
:1022D00000A20000BFA23D7EC500D0032818608A7E
:1022E00018692000AAE00008D0EA28386008C23146
:1022F000850080E008C231E220A699BDA93D3045A5
:10230000293F8500BDAA3D48293F8501682A2A2A20
:102310000AC231290600DAAAE220FC451FFA85022A
:10232000A501C500B00DA50038E502C501300DB00E
:10233000118009A500186502C501900006A50129B4
:102340003F09809DA93DC231A699BDAA3D30490AE9
:102350000A2900FC8500BDAD3D0A0A29E0030500FD
:102360008500BDAC3D48EB0A0A2900FC8502684A9D
:102370009005290600DAAAFC711FFA8504BDAB3D61
:10238000894000D01FA500C502B00E38E504B03C5E
:10239000C50290002C80364CAE1E38E50490002219
:1023A000C50290001E8028A500C50290000B18658C
:1023B0000490001DC502B00D8017186504B006C555
:1023C00002B002800CA5022900FC4A4A0900808064
:1023D0000529E0FF4A4A8500E220BDAB3D294005C2
:1023E000019DAB3DBDAD3D290705009DAD3DC23111
:1023F000BD943D290F008500BDAD3D290700850234
:10240000BDA93D293F0048BDAB3D293F000A9005CD
:10241000650018695169AAA0200368186502482957
:1024200007008502684A4A4A29070048F0323A54B0
:102430007EC0A96B00990000A699BD9C3D4A9004FE
:10244000A8BD9A3D4A9004DAAA2220037E8AFA0A9D
:1024500090049D9A3D980A90049D9C3D68186500E3
:10246000290F008500E220A699BD943D29F00500C2
:102470009D943DBDAD3D29F805029DAD3D28604DC3
:102480001F501F531F561FA94060A90160A9086073
:10249000A50138E5009000028005A50038E5014A55
:1024A000D003A90160C908900002A90860791F7DC6
:1024B0001F811F851FA900FC60A9200060A90004DE
:1024C00060A50238E5009000028005A50038E5020D
:1024D0004AC92000B004A9200060C900049000038C
:1024E000A900046008C231DAE22048A5B4290385B6
:1024F000AE6829031865AEF05885AEC231BD9C3D6B
:102500004A900729FF00EB8500BDA43D29FF008507
:1025100002BD9A3D4A900438E90A004A4A4A1A29FB
:10252000FF000500AAA93600207F17E220FABD9916
:102530003D290E8500DAA699BD993D29F105009D3A
:10254000993D208820208820C6AED0AAFA2860BDF8
:10255000AD3D29FF00F032DEAD3DBDA93D29FF00B4
:10256000186980FF187D9A3D9D9A3DBDAC3D29FFBD
:1025700000187DAA3D9DAA3D187D9C3D9D9C3D4A2D
:102580009004CD8402B00160CE86029E933D600827
:10259000E220AD8602CD87029000089E933D9E9476
:1025A0003D2860EE8602286087207320E220A699ED
:1025B000AD11020A90049D9C3DA9FF9D9A3D60606B
:1025C00008E220A5B385B4A5B285B3A5B185B2C58F
:1025D000B33024A5B31865B4184D42034D44034DE0
:1025E00046034D48034D4A034D4C034D4E034D5099
:1025F00003451A85B128601865B4184D4A03451A79
:1026000085B1286008E220AD412129E0C9E0D01160
:10261000C231AD41212907000AAAAD42219F5B5F6B
:102620007EC231A5C5291F000AAAFC1021E220287C
:102630006008E2209C120220C723A5C9C5CAD0FAAF
:10264000A5C5C901D0F428606C2203233923452392
:102650008D219921A824E82439225E2219222B22D7
:1026600070217F215321622134214521C231A5C629
:102670008D4121E220A9FE8D4021E6C560E220AD1A
:102680004021C9FED004A90185C560E220A5C68D00
:102690004121A9FD8D4021E6C560E220AD4021C960
:1026A000FDD004A90185C560E220A5C68D4121A900
:1026B000FC8D4021E6C560E220AD4021C9FCD0047C
:1026C000A90185C560E220A9F88D4021A90585C52D
:1026D00060E220AD4021C9F8D070A5C685CFC231D7
:1026E00029FF0085CB0A1865CBAABF91867F85CBD1
:1026F000BF92867F85CCA00000B7CB3A3A8DD1003F
:10270000C8C8E220B7CB8D4121C8B7CB8D4221C8C4
:10271000B7CB8D4321C8A9F28D4021CD4021D0FBFC
:10272000B7CB8D4121C8B7CB8D4221C8B7CB8D43E4
:1027300021C8A9F38D4021CD4021D0FBCCD1009000
:1027400000C3A9F98D4021A90185C5A5D3094085FC
:10275000D360C2319C41219C4221E220A9FB8D40E3
:1027600021E6C560E220AD4021C9FBD004A9018566
:10277000C560C231A5C68D4121A5C729FF7F0D7156
:10278000028D4221AD71024900808D7102E220A9C3
:10279000FA8D4021E6C560E220AD4021C9FAD0049F
:1027A000A90185C560E220A97FA2522B85CD86CBE9
:1027B000C231A00000A9AABBCD4021D0FBE220A9D4
:1027C000CC8026B7CBC8EBA900800BEBB7CBC8EB0E
:1027D000CD4021D0FB1AC2208D4021E220CAD0EB8F
:1027E000CD4021D0FB6903F0FC48C220B7CBC8C85C
:1027F000AAB7CBC8C88D4221E220E00100A9002A77
:102800008D4121697F688D4021E00100900007CD56
:102810004021D0FB70AEE220A542E6C5A9A08D15EF
:1028200002A90F8D160220F0226008C231A9000013
:10283000A210009F595F7ECACAD0F82860E2209C8F
:102840004021A5C9C5CAF02AC231293F00AABD1836
:102850000285C5BD1A0285C7A5C5291F00C901008B
:10286000F0100AAAFC1021E220A5C9186904293F2A
:1028700085C960E220A9F18D4021A90385C560E2E8
:1028800020AD4021C9F1D072A5C685CEC23129FF45
:102890000085CB0A1865CBAABF8E867F85CBBF8FFC
:1028A000867F85CCA00000B7CB3A3A8DD100C8C84E
:1028B000E220B7CB8D4121C8B7CB8D4221C8B7CB21
:1028C0008D4321C8A9F28D4021CD4021D0FBB7CB4B
:1028D0008D4121C8B7CB8D4221C8B7CB8D4321C8CC
:1028E000A9F38D4021CD4021D0FBCCD1009000C375
:1028F000A9F48D4021A90185C5A542A5D3098085EC
:10290000D36008C231A5CA29FF00AAE220A90A9D06
:102910001802A5CA186904293F85CA286008C2316F
:1029200048DAA5CA29FF00AA689D1A0268E2209D1C
:102930001902A9089D1802A5CA186904293F85CA69
:10294000286008C231DA48A5CA29FF00AAA90000F8
:102950009D1A0268E2209D1902A9089D1802A5CAC5
:10296000186904293F85CAFA286008C23148A5CAF7
:1029700029FF00AA68E2209D1902A9029D1802A55C
:10298000CA186904293F85CA9C1202A5D3297F85EC
:10299000D3286008E22048C2319C6F02A5CA29FFF3
:1029A00000AAE220689D1902A9069D1802A5CA186E
:1029B0006904293F85CAE2209C1202286008C231BE
:1029C00048A5CA29FF00AA68E2209D1902A9049D12
:1029D0001802A5CA186904293F85CAA5D329BF854D
:1029E000D32860E220A97F8D1202A5C685C4C2311A
:1029F00029FF0085BC0A0A1865BCAABF9D867F8D89
:102A00004121E220A9F58D4021AF402100C9F6F017
:102A100004A90785C560E220A532297F8532A90176
:102A200085C560E220AD4021C9F6F0EAC9F5D0F2D3
:102A3000A5C4C23129FF0085BC0A0A1865BCAABF1B
:102A40009A867F85BEBF9B867F85BFAD412185C1AC
:102A50008D6F0248AD120229FF00D0039C6F0268FF
:102A6000C9C70190000CE220E6C0C23138E9C701B5
:102A700080EF0A900485BE0A0A0A1865BE85BEA9C1
:102A8000120085BCA90500A200009B9F535E7EA991
:102A9000F7009F545E7EA5C19F555E7EAD12029FDA
:102AA000575E7EE89005A901009F535E7EB7BE9FEA
:102AB000545E7EC8C8B7BE9F565E7EE89005C8C803
:102AC000A901009F535E7EB7BE9F545E7EC8C8B703
:102AD000BE9F565E7EE89005C8C8C6BCD0C464BC24
:102AE00064BEA901009F535E7EA5BC9F545E7EA577
:102AF000BE9F565E7EE89005A900009F535E7EA9AA
:102B0000535E8F724300E220A53209808532A97E90
:102B10008F744300A9048F704300A9408F71430054
:102B20006008C231A5CA29FF00AAE220AD15029DA6
:102B30001902A90C9D1802A5CA186904293F85CA63
:102B4000286008C231A5CA29FF00AAE220AD1602FA
:102B50009D1902A90E9D1802A5CA186904293F856E
:102B6000CA286008C231A5CA29FF00AAE220AD1711
:102B70000229079D1902A9109D1802A5CA18690407
:102B8000293F85CA28606008C23148A699BD9A3D90
:102B90004A9005297F00090F00EBAA68E22020E295
:102BA0002328602027D226D6263627DB26FE2604B9
:102BB000270C27C723EE250F2630269A2621272803
:102BC00027E526EC26F32652275927E2204B688575
:102BD00002C23164009C900002A00000C231B70024
:102BE00029FF006D9000028D900002C8D0F0A0DE99
:102BF000FFB700CD900002F007A211002090000066
:102C000060A2100020900000605CDA267F5CDA266B
:102C10007F60E220AD8B028F00300060E220A902CD
:102C200085FB60E220A90485FB60E22064FB60A5CF
:102C3000C420582460A5CE202F2460E220A5CF20F8
:102C4000822460E220AD1302EBAD1402C231AAE28D
:102C500020A5D020E2236060E220A900851960E26F
:102C600020A90A851960E220A908851960E220A937
:102C700002851960E220A904851960E220A9028575
:102C80001960E220A91C851960E220A92585196038
:102C9000E220A924851960088BE22048A98048AB6E
:102CA00068C2312907000A6996278500E220A97FBA
:102CB0008502C2319829FEFFA85AA00000B7007A09
:102CC0009F00007EE8E88888D0F6AB28600000EA24
:102CD000EA8024C900072948DA08C230E220A98026
:102CE0008D00219C00428D1521A209188E1043A24F
:102CF00000008E162186008E1243A9008D1443A277
:102D0000FFFF8E1543A9028D0B429C1921A5208D32
:102D10000021A5428D004228FA6860088BE2204815
:102D2000A98048AB68C2316403E2205AA403B7000B
:102D3000C884037A9F00007EE888D0EFAB28600843
:102D40008BE22048A98048AB68C2319C15439C1295
:102D5000439C8121E220A9C08D1443A9018D8321C8
:102D6000A202808E1043A9028D0B425C38287FABF3
:102D700028604328AC28D328E828C231A9C8008D90
:102D80008402E220A9008520A9808F00210020D79D
:102D90001C207A0920C60C20361D20481D20D20890
:102DA00020C00820AE08E670E671E67264A3A900B0
:102DB00085D5A9808D6D02A9148D8702A900207385
:102DC0000620040020D208A900202F2464F0A90FB7
:102DD0008520E619C231A92400A20000A00000202D
:102DE000AE0960205A16A20000203E03E220A51A78
:102DF0002903D015A2130020900000A214002090F7
:102E00000000A215002090000020D82960E22020B8
:102E1000D20820C00820AE08A20300209000006461
:102E2000F0E619205A16A20100203E03A20D002050
:102E3000900000A20E0020900000A21E0020900032
:102E400000A21F002090000060B42913291229124B
:102E50002960AD12428901D0F9C231AD18428D42CC
:102E600003AD1C428D4403AD1A428D4A03AD1E4290
:102E70008D4C03E220A9C08D0142A9018D16409C12
:102E80001640C231A21000AD16404A2E46034A2E0B
:102E900048030A0AEB4A2E4E034A2E5003CAD0E7D3
:102EA000E220A9018D1640EAEAAD1640AD16402990
:102EB00002D0069C46039C4703AD1740AD1740293E
:102EC00002D0069C4E039C4F039C1640C231A200C8
:102ED00000BD520349FFFF9D6203BD42039D5203A3
:102EE0003D62039D6203E8E8E01000D0E4E2209C2C
:102EF000014260AD12428901D0F9C230AD5203499E
:102F0000FFFF8D6203AD18428D42038D52032D6287
:102F1000038D6203E2206008C231AF0100C085006A
:102F2000AF0000C0CF000040D020E220C9A5D01AD9
:102F3000A50089F8D014A9A58F0000C0C231A50052
:102F4000482907000AAA68FC0D2A28601E2A252A9B
:102F50001D2A1D2A1D2A1D2A1D2A1D2A60E220EB7A
:102F60008D920260E220EB8F024200A9648F03423F
:102F700000EA9004C231AF1642008F044200E22002
:102F8000AD92028F064200EA9008C231AF144200AF
:102F90008D9302A218002090000060A217002090DC
:102FA000000060E220A9808D0021200828C231A9FC
:102FB00000005BA9FF011BE220A900A0F001A20014
:102FC00000206027A900A00060A20002206027A2C4
:102FD00001217400E8E00D21D0F874007400E8E0ED
:102FE0001521D0F6A9808D15219C16219C17219CB6
:102FF0001A21A21B2174007400E8E02121D0F6A25E
:1030000023217400E8E03421D0F8A9FF8D0142EAC1
:10301000EAAD1042AD1142208708209C0820AE087E
:1030200020C00820C60C20D71C20361D20481DC2F9
:1030300031A9341285B1A9AA5585B2E220A9018D22
:1030400042008D0042AD1C008D3321206A09AD1075
:103050004230FBAD104210FB20970BA5190AC2317C
:1030600029FF00AAE220AD1C008F33210008FC3BA1
:103070002828A9808F014200EA9004AF372100AFD1
:103080003F2100AF3D21008D110280C16119000375
:10309000208FF0F1E8FFC5F0FFCDFFBDE8005D5FD8
:1030A00024036D6174744064666F726365333030FD
:1030B000302E6465AFC8F0D0FB8F7F9C8F7F9D8FD3
:1030C000009E8F009F8F0FA08F0FA18F00B28F7F68
:1030D000B88F7FB98F5F838F1C843FB7133F550C28
:1030E0003F020C3F0B13E4FDE4FDF0FC3FFD033F0A
:1030F0004314E4F428F068F0D0ECE4F4280F1C5DED
:103100001F7303F1139303F113F113F1139211F1F0
:1031100013F1139E0FF11347101F140614F4132E0E
:103120001437143F170F3FB7133F0B0D3F550C3F9C
:10313000020C3F0B132FAF3FC5122FAA8D00CBF40B
:10314000CBF5CBF6CBF7E86C8DE0DAF2E80CDAF2EF
:10315000E81CDAF2E82CDAF2E83CDAF2E84CDAF2CF
:103160008DFFE85CDAF28D00E80DDAF2E82DDAF294
:10317000E83DDAF2E84DDAF2E85DDAF2E86DDAF22B
:10318000E87DDAF28FF0F15FC0FF5FC0FF03EF016F
:103190006FAB60698F60D01A8F0060EB9000E85CC5
:1031A000DAF2E4FE8D02E4FEF0FCFEFA3F57043F43
:1031B000210E6FBAA4DA6A8F00783F2406BAA6DA25
:1031C0006A8F10783F2406BAA8DA6A8F20783F24E5
:1031D00006BAAADA6A8F30783F2406E4B7F0088F7F
:1031E0004CF2C4F38F00B76FBA62DA963AB38F002D
:1031F00077BAA4DA6A8F00783FAF043FCB0DBAA646
:10320000DA6A8F10783FAF043FCB0DBAA8DA6A8F25
:1032100020783FAF043FCB0DBAAADA6A8F30783FEF
:10322000AF043FCB0D3F8B0D3F9E0E5F3C133A62C8
:103230008D00E8FFD76AFCD76AFCD76AFCD76A6FB3
:103240008D00F76AC46CFCF76AC46DFCF76AC47041
:10325000FCF76AC471096D6C09706C09716CE46CDF
:10326000D0033F0E068D00F76268FFF0C1D76AFCFD
:10327000F762D76AFCF762D76AFCF762D76A3A62EC
:103280003A623A623A628D02F76A280FC46C8D0383
:10329000F76A28F0046C68DEF0033F0D056F8D00BF
:1032A000F76AF01A9C8D08CF7A87DA6C8D02F76C7A
:1032B0008D04D76A8D03F76CC4798D05D76A8D01AB
:1032C000F76A68FFF0338D02F76A68FFF02E280F67
:1032D000C46CFCF76A28F0046C9F68E5F0108D025E
:1032E000F76A280F6803F00B6805F0072F0E3FD729
:1032F0000B2F093F4A085F82065F82068D01F76A3D
:103300008D11D76AFD6D8D04F76A8D48CF7A81DA09
:103310007FEEF77FC46CC48CFCF77FC46DC48DEB6B
:103320006DE46C7A6C7AA2DA6C8D00F76CC47AFC6E
:10333000F76CC47B8D06E47AD76AFCE47BD76A8D90
:1033400013E48CD76AFCE48DD76A8D0EF76A6804A3
:10335000D0068D0DE800D76A8D0EF76A6840D0065A
:103360008D0FE800D76AE47808025D8D06F76AD809
:10337000F2C4F3FC3DF76AD8F2C4F33D8D00F76A5E
:10338000F01AD8F2C4F33DD8F28F00F33DD8F28F93
:1033900000F33D3D8D17F76A0477C4775F8206E43A
:1033A0007808025D8D06F76AD8F2C4F33DFCF76A2F
:1033B000D8F2C4F36F8D02F76A68FFF0E2280F1CA1
:1033C0005D1F3306E2067F07EC079A084009FB06FB
:1033D0000107150A53065306EB0A53065306530614
:1033E000540653066F8D03F76A28F05C5C5C5D1F22
:1033F00061068106810681068106810681068106B5
:1034000081068106E60E81068106BD0EE60E810666
:1034100081066F8D02F76A68FFF027280F1C5D1F79
:1034200091060E060E060E060E060E060E060E0679
:103430000E060E06320B0E06890BA90BB70BB4064F
:10344000240B5F0E068D03F76A28F0FD9F1C5D1F9D
:10345000C106C10B7707E407E106C40BD70B730E57
:10346000E106E106AF0EE20BF20BAF0EAF0EE10686
:10347000E1066F8D04F76A8D48CF7A81DA7F8D0679
:10348000F76AC47AFCF76AC47B5F07073FAA085F44
:10349000EB0A3F70095FEB0AE4608D00CD039ECB21
:1034A0006C78016CF00B78026CF00F78006CF01205
:1034B0006F8D03F76A9F280F2F158D03F76A280F6A
:1034C0002F0D8D06F76AC46CFCF76AC46D2F291C9A
:1034D000C46C8D11F76A60846CFDF77FC489FCF7BA
:1034E0007FC48AEB8AE4897A897AA2DA898D00F727
:1034F00089C46CFCF789C46DE4780802C4F2FA6CE4
:10350000F3BCC4F2FA6DF36F780060D0648F0F7D66
:10351000E8718D00DA708D13F76AC46CFCF76AC429
:103520006D8D03F76A247D8D00DA6EBA6C9A6E5A3F
:10353000701002BA70DA6C8D13E46CD76AFCE46D1B
:10354000D76AEB6DE46C7A6C7AA2DA6E8D00F76E56
:10355000C46CFCF76EC46D8D06E46CD76AFCE46D38
:10356000D76AE4780802C4F2FA6CF3BCC4F2FA6DCC
:10357000F38FFF7D6F780060D0F78F0F7DE8588D57
:1035800003DA708D13F76AC46CFCF76AC46D8D039F
:10359000F76A247D8D007A6C5A703002BA70DA6C4A
:1035A0008D13E46CD76AFCE46DD76AEB6DE46C7A3A
:1035B0006C7AA2DA6E8D00F76EC46CFCF76EC46D87
:1035C0008D06E46CD76AFCE46DD76AE4780802C41F
:1035D000F2FA6CF3BCC4F2FA6DF36F8D01F76AFD79
:1035E0006D8D04F76A8D48CF7A81DA7FEEF77FC45C
:1035F0008CFCF77FC48D8D15E48CD76AFCE48DD7E5
:103600006A8D13F76AC46CFCF76AC46D8D0BE80011
:10361000D76ABA8C5A6CF00930068D0BE801D76A6C
:103620006F8D15E800D76AFCD76A6F8D03F76AF0D3
:103630000A8D0AD76A8D03E800D76A8D15F76AC428
:103640006CFCF76AC46DBA6CF0D68D0AF76A8D000F
:10365000DA6E8D0BF76AD0208D13F76AC470FCF711
:103660006AC471BA709A6E5A6C102B8D15E800D727
:103670006AFCD76ABA6C2F1E8D13F76AC470FCF708
:103680006AC471BA707A6E5A6C300B8D15E800D727
:103690006AFCD76ABA6CDA6C8D13E46CD76AFCE406
:1036A0006DD76ABA6C7A6C7AA2DA6C8D00F76CC44A
:1036B00070FCF76CC4718D06E470D76AFCE471D7B6
:1036C0006AE4780802C4F2FA70F3BCC4F2FA71F347
:1036D0006F8D03F76AF02AC46C8D0CF76AC46D38DD
:1036E0000F6CF00638F06D096C6D8D03F76AC46CD1
:1036F00038F06CF006380F6D096C6D8D0CE46DD7E9
:103700006A8D0DF76AC46D4B6D4B6D381F6D8D0E54
:10371000F76A2803C46EF0230B6D0B6D0B6D680107
:10372000F0058FFF6E2F1B8D0DF76A10098FFF6E4E
:1037300080A96D6E2F0CFA6D6E2F07F86DF5C7140A
:10374000C46E8D0CF76A280FEB6ECFDA708D074BC5
:10375000716B70FEFA8D13F76AC47AFCF76AC47B4A
:103760008D0DF76A3006BA7A9A702F04BA7A7A7099
:10377000DA7A9004A2DA898D00F789C47AFCF78995
:10378000C47BE4780802C4F2FA7AF3BCC4F2FA7B90
:10379000F38D0CF76A5C5C283CC46C8D0DF76A6095
:1037A000846CD76A6F8D03F76AF02AC46C8D10F7AA
:1037B0006AC46D380F6CF00638F06D096C6D8D03BE
:1037C000F76AC46C38F06CF006380F6D096C6D8DBB
:1037D00010E46DD76A8D0FF76AC46D4B6D4B6D3871
:1037E0001F6D8D0EF76AC46E4B6E4B6E4B6E4B6E3B
:1037F00038036EF0260B6D0B6D0B6D0B6D78016E43
:10380000F0058FFF6E2F1B8D0DF76A10098FFF6E6D
:1038100080A96D6E2F0CFA6D6E2F07F86DF5C71429
:10382000C46E8D10F76A280FEB6ECFDA708D064BE1
:10383000716B70FEFA8D05F76AC46C8D0FF76A30F4
:10384000066089706C2F0480A9706C10038F006C67
:1038500078406C30038F406CE4780800C4F2FA6C56
:10386000F3BCC4F2FA6CF38D10F76A5C5C283CC4BC
:103870006C8D0FF76A60846CD76A6F8D03F76A9F4F
:10388000280FF016C46C8D05F76A846C684030020E
:10389000E840D76AC4793FAB0D6F8D03F76A280FF4
:1038A000C46C8D05F76AA46C1002E800D76AC4796D
:1038B0003FAB0D6F8D03F76A680FB005C48F9CC4D2
:1038C000916F8D03F76A5DE8008D008F90006E8F19
:1038D000006FC800F0057A6E1D2FF7DA6C8D00F7C7
:1038E0006A1C1C5DF50002C470C58002F50102C4AB
:1038F00071C58102F50202C58202F50302C5830289
:10390000BA707A6CDA70E470C58002E471C5810225
:10391000E4780804C4F28F20F36F8D03F76AC47C47
:103920005DF5591D1C5DF5D91DFDF5DA1D7A64DACA
:1039300062AE90065F56038D03F76A8D05D76AC4A1
:10394000793FCB0D6F8D03F76AD0038F019B6FAB6F
:10395000B56F8D03F76A280FC46C8D0EF76A28F0D7
:10396000046CD76A6F8D03F76A280F8D04D76A6FCE
:10397000E460D00B8D03F76A280FC46C5FF60A6F02
:10398000E460D00B8D03F76A280FC46C5F120B6FD5
:103990008F0060E806C48F9CC4918F009A8F007CD2
:1039A0008FFF7DE5571DC48E8FFC6C8F016DBA852E
:1039B000DA877A6CDA62DA64DA98E5591D1C5DF50B
:1039C000D91DFDF5DA1D7A64DA62E8E7C481E814EE
:1039D000C482E85FC4A2E815C4A38F009B8F00B522
:1039E0006FE3018F00F1E4FDE4FEE4FF8F0FB18F80
:1039F000A0B0FAB0FA8F10FB00008F03F1E8005D71
:103A0000C86CD006D8F28F20F33DD8F2C4F33D1035
:103A1000EF8F5DF28F02F38F6CF28F20F38F0CF239
:103A2000FA9CF38F1CF2FA9DF38F3DF28F00F38F17
:103A30007CF2C4F38F0FF28F30F38F1FF28F00F3FD
:103A40008F2FF28F00F38F3FF28F00F38F4FF28FA3
:103A500000F38F5FF28F00F38F6FF28F20F38F7F71
:103A6000F28F30F3E4782D8F00783FF30C8F1078CD
:103A70003FF30C8F20783FF30C8F30783FF30CAE80
:103A80006FE80504785DD8F28F0EF33DD8F28F2DE4
:103A9000F33D7D28F05DE8406FCD008D00FCF7859B
:103AA000DC608485D50402F7858486D50502FC9008
:103AB00005F785DC608485D50602F7858486D50701
:103AC00002FC90043D9004C87CD0CE6F60F5601C71
:103AD000885FD60402F55F1C881CD605023D900461
:103AE00060F5601C885FD60602F55F1C881CD6074F
:103AF000023D9004FC9004AD7CD09B6FE8211C1C1F
:103B0000FDE880D60002D60202E8FBD60102D60309
:103B1000026F8D00E85CDAF28F4CF2E47724B1C4D6
:103B2000F36FE8070478C4F28F9FF38D05E800D7A0
:103B30006A6FE8070478C4F2E479287FC4F3E47874
:103B40006800F0306820F02CEBB8DAF2BCEBB9DAA0
:103B5000F26FE8070478C4F28D05F76A287FC4F392
:103B6000E4786800F00E6820F00AEBB8DAF2BCEBFB
:103B7000B9DAF26FEBB9DAF2BCEBB8DAF26FE478EB
:103B8000C4F2E4F3C476697679F01C300DAB76E4C8
:103B900078EB76DAF2BCDAF22FEC8B76E478EB761F
:103BA000DAF2BCDAF22FDF6F8D008F0090008F0108
:103BB000783F3E0E8F02783F3E0E8F04783F3E0ED8
:103BC0008F08785F3E0EF7626800F02A68FFF029E0
:103BD000FCF76268FFF020FCF7626803F01A280F18
:103BE000C46CFCF762DC28F0046C68DEF00AE49038
:103BF000000478C490002F02FC90046F8D03F76AD4
:103C0000280FD005BA96DA986FE49A2820D00B8D49
:103C100003F76A280F0830C49A6FE49A280F9CC4EF
:103C20009AF00318309A6FE49A2810F00ABA98DADA
:103C300062E49A28EFC49A6F8D03F76A280FF001A7
:103C40009C8D12D76A6F8D12F76A280FD01DD76A24
:103C50003F9B0D8D17F76A48FFC4892989778F002C
:103C6000793FCB0D8D03E800D76A6F9CD76A6F8DC3
:103C700012F76A280FD0123F0D058D17F76A04B7A7
:103C8000C4B78D03E800D76A6F9CD76A6F8F2CF298
:103C90008F00F38F3CF28F00F38F4DF28F00F36FA4
:103CA0008F0CF28F00F38F1CF28F00F38F2CF28FAA
:103CB00000F38F3CF28F00F38F6CF28F20F3E8F16A
:103CC000C4F4E800C4F5C4F6C4F78F5F838F1C8486
:103CD0008F5F858F1C868D0078F4F4F03678F2F4CF
:103CE000D0F6E4F5D7833A83E4F6D7833A83E4F752
:103CF000D7833A838FF2F478F3F4D0FBE4F5D783DB
:103D00003A83E4F6D7833A83E4F7D7833A838FF391
:103D1000F42FC5E800C4F4C4F5C4F6C4F78F00B3AB
:103D20008F00B48F01EF6FE8F8C4F4E800C4F5C465
:103D3000F6C4F78F5CF28FFFF3BA83DA6C8D0078EC
:103D4000F9F4F03678F2F4D0F6E4F5D7833A83E468
:103D5000F6D7833A83E4F7D7833A838FF2F478F384
:103D6000F4D0FBE4F5D7833A83E4F6D7833A83E4CF
:103D7000F7D7833A838FF3F42FC5E800C4F4C4F572
:103D8000C4F6C4F7BA6CDA831802EF3F08105F5626
:103D900003CD888D00F783281FC46CFCF783FC607B
:103DA0008483D50002F7838484DCD50102FCFCF710
:103DB00083FC608483D50202F7838484DCD503020C
:103DC000DD60880EFD3D90046E6CD06F5F5603BAC7
:103DD000F4DA6CBAF6DA6E8FFAF433EFEFE46F28A8
:103DE0008044B6D0E75880B68D00F783C470E46D88
:103DF0006470B0D8E4AFBC2803C4AF5DF5BF14C491
:103E000070F5C314C4718F5CF2C4F3E4FE8D04E456
:103E1000FEF0FCFEFAF870E46D1C9004BCFDFC9012
:103E200004E46F287FF021280FC472601C1C1C382A
:103E30000F720472C4723F4711D8F2C4F3FC3D3FC5
:103E40006411D8F2C4F32F0EF783D8F2C4F3FC3D0B
:103E5000F783D8F2C4F3FC3DE46EF0326D1CFDF73D
:103E600081C472FCF781C473EB73E4727A727AA234
:103E7000DA728D00F772C47AFCF772C47BEEE47AD2
:103E8000D8F2C4F3FC3DE47BD8F2C4F32F0EF783E1
:103E9000D8F2C4F3FC3DF783D8F2C4F33DE46D607F
:103EA0008822D8F2C4F3FC3DF783D8F2C4F3FC3D7A
:103EB000F783D8F2C4F3FC3DF783D8F2C4F38F5CE8
:103EC000F28F00F38F4CF2FA71F35F5603E46F9FA9
:103ED00028074D1C5DE4721F54118111821183115A
:103EE00084118511861187118811E46F9F28074D71
:103EF0001C5DE4721F711188118711861185118470
:103F0000118311821181115C900700C473E47280E7
:103F1000A473CE6F8F5CF28F0FF38F00AC8F00AD68
:103F20003F750DBAF5DA6CE800FDDA6EDAF58FF55B
:103F3000F478F7F4D0FBBAF55A6ED064E4F7C4AE67
:103F4000F068E4AC1C5D1F411278F7F4F0FBBAF4A2
:103F50002D6DBAF62D6DE46CE46CE46CE46CE46CED
:103F6000E46CE46CE46CE46CE46CE46C6E70DFE8CC
:103F700024C4708D8FAED772DCAED772DCAED77230
:103F8000DCAED772DC6E70ED7807ADD0088D87F7A8
:103F9000720803D7723A6EABAD3807ADE4FDF0FCA2
:103FA000BA6EDAF5BA6C5A6ED0878F5CF28F01F375
:103FB0008FF6F48F00F10000FAB0FA00008F03F1E1
:103FC0005F5603661245128F80728FFB73E4AD8DCE
:103FD0009000CF7A72DA72E800EBAEDAF2BCDAF275
:103FE0008D00E824C4705FC7118F80728FFB73E46B
:103FF000AD28078D9000CF7A72DA728D00E824C464
:10400000707807ADD040E800EBAEDAF2BCDAF2BC73
:104010008D00DAF2BC8D04DAF2BC8D21DAF2BC8DAF
:1040200000DAF2BCDAF2BC8D7FDAF28F5CF28F003C
:10403000F38F4CF28F01F38F00F100008F00FA0034
:10404000008F03F1ABAC5FC7118F9C858F00868D0D
:10405000008F01F47800F4D0FBE4F5D7853A85E4CD
:10406000F6D7853A85E4F7D7853A858F00F478014D
:10407000F4D0FBE4F5D7853A85E4F6D7853A85E4B4
:10408000F7D7853A85E800C4F4C4F5C4F6C4F78FC1
:104090006DF28FF8F38F7DF28F01F38F0DF28F04A5
:1040A000F38F0CF2FA9CF38F1CF2FA9DF38F2CF233
:1040B000FA9EF38F3CF2FA9FF38F4DF2FAA1F36F61
:1040C000E49BF027AB7CF87C3E8ED0058F007CF81B
:1040D0007CF5591D1C5DF5D91DFDF5DA1D7A64DAF4
:1040E000628F009BAE90045F5603F87CF5591DBCAF
:1040F0001C5DF5D91DC46DF5DA1DC46CBA629A64F5
:104100005A6C10016FAB7CE47C648EF0145DF55941
:104110001D1C5DF5D91DFDF5DA1D7A64DA62DA98A9
:104120006F8F50F68F007CF87CF5591D1C5DF5D91A
:104130001DFDF5DA1D7A64DA626FE8008D00DA6C35
:10414000DAA4E8013FDA13DAA6E8023FDA13DAA8C4
:10415000E8043FDA13DAAAE8083FDA136F8D17D7BD
:104160006C1A6CE800D76CFEFC3A6CE8188D007A8B
:104170006CDA6C6F5F5603FAF5B18F5CF2E4B1480C
:104180000FC4F38FFDF45F5603FAF5B08F00F10012
:1041900000FAB0FA8F10FB00008F03F18FFCF45F80
:1041A000560338FEEF8F5CF28F0FF38FFBF45F56F0
:1041B00003FAF5B28FFEF45F5603FAF5B8FAF6B9D2
:1041C0008FFFF45F5603E4B228071C5D1F4C145C9C
:1041D0001465147314B1145C145C145C145C14E85E
:1041E00000C4F5C4F6C4F76F8F00F5BAB3DAF6E48D
:1041F000B208E0C4F56F8F09F2E4F35C5C5C280F51
:10420000C46C8F19F2E4F31C28F0046CC46C8F2981
:10421000F2E4F35C5C5C280FC46D8F39F2E4F31CAC
:1042200028F0046DC46DBA6C8F00F5DAF6E4B208BC
:10423000E0C4F56F8F00F5E4B5C4F6E4B208E0C45D
:10424000F56F40506070102040800018314A61784E
:104250008DA1B4C5D4E0EBF4FAFDFFFDFAF4EBE078
:10426000D4C5B4A18D78614A311858032803FA02E5
:10427000D002A60280025C023A021A02FC01E001AE
:10428000C501AC0194017D016801530140012E017B
:104290001D010D01FE00F000E200D600CA00BE00C4
:1042A000B400AA00A00097008F0087007F0078006C
:1042B00071006B0065005F005A00550050004B0014
:1042C000470043003F003C003800350032002F001B
:1042D0002D002A0028002500230021001F001E00B9
:1042E0001C009011D7F7DBD8C2C07BADB59D900004
:1042F00090007185E87BA5736A6C09665D604B5B15
:10430000BA569852D74E694B44486045B542EA3F89
:10431000B63DA83BBB39ED373B36A3342233B6312B
:104320005E30182FE32DBE2CA62B9C2A9F29AC288B
:10433000C527E826142649258624CB2317236A227D
:10434000C42124218A20F51F661FDB1E551ED41DA3
:10435000571DDD1C681CF71B881B1E1BB61A511A43
:10436000F01991193519DB1884182F18DD178C17DF
:104370003E17F216A7165F161816D3159000154EA5
:10438000150E15CF14921456141C14E313AB1374AA
:10439000133E130A13D712A412731243121412E518
:1043A00011B8118C11601135110B11E210BA109275
:1043B000106B1045101F10FB0FD60FB30F90000F9E
:1043C0006E0F4C0F2B0F0A0FEA0ECA0EAB0E8D0E9E
:1043D0006F0E510E340E170EFB0DE00DC40DA90D1E
:1043E0008F0D750D5B0D420D290D100DF80CE00CB5
:1043F000C80CB10C9A0C840C6E0C580C420C2D0C91
:10440000180C030CEE0BDA0BC60BB20B9F0B8C0BCC
:10441000790B660B540B410B2F0B1E0B0C0BFB0A7D
:10442000EA0AD90AC80AB70AA70A970A870A770ABE
:10443000680A580A490A3A0A2B0A1C0A0E0AFF0996
:10444000F109E309D509C809BA09AC099F0992091C
:10445000850978096B095F09520946093A092D094E
:10446000210916090A09FE08F308E708DC08D10843
:10447000C608BB08B008A5089B0890000886087B02
:1044800008710867085D08530849083F0836082C7A
:10449000082208190810080608FD07F407EB07E2D0
:1044A00007D907D107C807BF07B707AE07A6079EFA
:1044B0000795078D0785077D0775076D0765075DFC
:1044C0000756074E0746073F0737073007290721DA
:1044D000071A0713070C070507FE06F706F006E99B
:1044E00006E206DB06D506CE06C706C106BA06B446
:1044F00006AD06A706A1069B0694068E06880682D0
:10450000067C06760670066A0664065E0659065341
:10451000064D06480642063C06370631062C06269E
:104520000621061C06160611060C0607060106FCE7
:1045300005F705F205ED05E805E305DE05D905D427
:1045400005CF05CB05C605C105BC05B805B305AE4D
:1045500005AA05A505A1059C05980593058F058A63
:1045600005860582057D057905750571056C05686B
:1045700005640560055C05580554054F054B054766
:1045800005430540053C053805340530052C052854
:1045900005250521051D051905160512050E050B36
:1045A00005070503050005FC04F904F504F204EE13
:1045B00004EB04E704E404E004DD04DA04D604D3E5
:1045C00004D004CC04C904C604C204BF04BC04B9AA
:1045D00004B604B204AF04AC04A904A604A304A066
:1045E000049D049A049704940491048E048B048817
:1045F00004850482047F047C0479047704740471C4
:10460000046E046B0468046604630460045D045B68
:104610000458045504530450044D044B0448044505
:1046200004430440043E043B04390436043304319B
:10463000042E042C04290427042504220420041D2C
:10464000041B0418041604140411040F040D040AB6
:10465000040804060403040104FF03FC03FA03F83E
:1046600003F603F303F103EF03ED03EB03E803E6C3
:1046700003E403E203E003DE03DB03D903D703D53E
:1046800003D303D103CF03CD03CB03C903C703C5B2
:1046900003C203C003BE03BC03BA03B803B703B528
:1046A00003B303B103AF03AD03AB03A903A703A592
:1046B00003A303A1039F039E039C039A03980396FD
:1046C000039403920391038F038D038B0389038863
:1046D0000386038403820381037F037D037B037AC4
:1046E00003780376037403730371036F036E036C23
:1046F000036A036903670365036403620360035F7E
:10470000035D035C035A03580357035503540352D4
:104710000350034F034D034C034A03490347034629
:10472000034403430341033F033E033C033B03397C
:10473000033803370335033403320331032F032EC9
:10474000032C032B03290328032703250324032217
:1047500003210320031E031D031B031A0319031760
:1047600003160315031303120310030F030E030CA8
:10477000030B030A030903070306030503030302EC
:10478000030103FF02FE02FD02FC02FA02F902F835
:1047900002F702F502F402F302F202F002EF02EE77
:1047A00002ED02EB02EA02E902E802E702E502E4B6
:1047B00002E302E202E102DF02DE02DD02DC02DBF2
:1047C00002DA02D802D702D602D502D402D302D12D
:1047D00002D002CF02CE02CD02CC02CB02CA02C965
:1047E00002C702C602C502C402C302C202C102C09D
:1047F00002BF02BE02BD02BB02BA02B902B802B7D2
:1048000002B602B502B402B302B202B102B002AF04
:1048100002AE02AD02AC02AB02AA02A902A802A734
:1048200002A602A502A402A302A202A102A0029F64
:10483000029E029D029C029B029A02990298029794
:104840000296029502940293029202910290000253
:104850008F028E028E028D028C028B028A028902E6
:104860008802870286028502840283028302820212
:10487000810280027F027E027D027C027B027B023B
:104880007A02790278027702760275027402740263
:1048900073027202710270026F026E026E026D028A
:1048A0006C026B026A0269026902680267026602B0
:1048B00065026402640263026202610260026002D5
:1048C0005F025E025D025C025C025B025A025902F8
:1048D000580258025702560255025502540253021A
:1048E00052025102510250024F024E024E024D023C
:1048F0004C024B024B024A0249024802480247025C
:10490000460245024502440243024202420241027B
:10491000400240023F023E023D023D023C023B0299
:104920003B023A02390238023802370236023602B6
:1049300035023402340233023202310231023002D3
:104940002F022F022E022D022D022C022B022B02EF
:104950002A0229022902280227022702260225020A
:104960002502240223022302220221022102200224
:104970001F021F021E021E021D021C021C021B023D
:104980001A021A0219021802180217021702160256
:10499000150215021402130213021202120211026E
:1049A000100210020F020F020E020D020D020C0285
:1049B0000C020B020A020A0209020902080207029B
:1049C00007020602060205020502040203020302B0
:1049D0009005010200020002009005030800080F84
:1049E000280F20070090260190040F0B0F0F7F5F08
:1049F000009008010307070F1F3F3F0090043C167B
:104A00003F7FFF90080090040D03FF900A00900480
:104A100068FDFFFFFEFFF2F8E8D08080009004F10F
:104A2000FEFFFFFEFFF8FCF0E04080009004E04055
:104A3000A08080800000010102030090048000E05B
:104A4000C000900601010000000105071F075F3E3E
:104A5000B43440F0E3800000010007031F0F1D3E47
:104A60007878F0E080C1780FFF900491DF0F033F6A
:104A70000F7F3FFFFF271F7FFFFFFFE3FF0F073F72
:104A80001FFF7FFFFF00DCFDFCFF900CE8F0FFFE46
:104A9000FF900C009005C0F0E0E8F8F8F8FEFEFD8D
:104AA000FE009004C080C0E0F0F0FCF8FCFCFEFECC
:104AB00000900401000603020F160F3F3F1C1E006A
:104AC000900501010306071F0E1E1E1E3E01000079
:104AD000010F83070F3F1F90043F7F3F000003013A
:104AE00003071F0F1F1F1F3F3F3F7F3FFF7FFF90A9
:104AF0000E7FFF900FFEFFFDFEFCFEFCFCF4F8F2C3
:104B0000F8E5E3EFEFFEFFFEFEFEFCF8FCF8F8F838
:104B1000F1F7F3F7EF0090080100FC67FEFCF8F0F6
:104B200000900A1FFEF8FCF0F8050307070E0F0CB3
:104B30001C0E1C3C3818397839030302070E060C8A
:104B40000E0C1C181C1C38383985831A0D2F115B6C
:104B5000051367465EEECE98DC8703040E18193302
:104B6000332F674EEFDEDC98FCBFBF7FFFF5F2E02E
:104B7000D0C0800090067FFF7FFFFBFCC0E000807C
:104B8000009006FF90041F9F071F07030301000109
:104B90000001FF9004BF7F070F070303010001001E
:104BA00000FF9010FEFF900F000080008000C0808A
:104BB000C0C0E0C0C0E0E0C0000080008080C080D5
:104BC00080C0C0C0E0C0C0E0009004020203010346
:104BD00001030103010301009004010003900A0096
:104BE0009006FF900A009004FF00FF900A009006D4
:104BF00080C081C081C183C387C7009004800080CA
:104C0000808180818383878F870090040B10FF5FF2
:104C10007FFF9005F9FD00900408077F3FFF900695
:104C2000FDFE009004A820FCFCFEFF90057FFF0025
:104C3000900430C0FAFCFEFF90057FFF00900A80D0
:104C400080C0C080C000900B80C080C0C000900AAF
:104C5000020004060C0400900C060006061F1E7FCE
:104C60003F7F3E7F3F7F3F7F7F3F7F3F7F3E3E3F97
:104C70003E7F3F3F7F7F7F3F7F7F3F3F3F7F7F7F05
:104C8000FFFF7FFF900A3F7F9004FF902BEFDFFF35
:104C9000901EE0E0D0E0C0C08080C0C0C080008036
:104CA0008000F0F0E0E0E0C080C08090083B7373CB
:104CB0007B7B7BFFF37FF77F90067939317B7F73B6
:104CC0007F77F77F7FFF7FFF7FFFF0F8B0F0E0E0B6
:104CD000E0F0F0E0C0E0C0C0E0E0F8B8F8F0900428
:104CE000E09007C0E000900C06060090100404FF5E
:104CF00090057F9006FF7F7FFF7F7FFFFF7FFF7F15
:104D0000FF7FFF7FFF7F7FFFFFFFC0C0C0E0900AF3
:104D1000C0DEE0900FE2FC00900E0F1000900F0F2D
:104D200010100F1F0F1F0F1F0F1F0F000000EF00AD
:104D30000F001F9008001F000020DF0000C0900936
:104D4000000000C000C000C0900800C0000000C00B
:104D500000900ED30D00900EBE7F000001000100F8
:104D60000100010001000100C100900401000100E8
:104D7000010001000100014081FC00FEFCFEFCFE80
:104D8000FCFEFCFEFCFEFCFEFC0000FC900E009015
:104D90000F0F00900E1F00900F12F100900EE10017
:104DA000000001900C85790000010301030103015B
:104DB000030103010303FF0000F8FCF8FCF8FCF812
:104DC000FCF8FCF8FCF8FC0000FCF8FCF8FCF8FC33
:104DD000F8FCF8FCF8FCF800900C0100130F0090B0
:104DE0000E170F00900C8000D4F800900EE8F00031
:104DF000900EFF0100900E7EFE00900E0700900FB7
:104E00000303010300900CF0000300900DF0F8FF85
:104E1000FF7F900FFF7FFF7FFF7FFF7FFF7FFF7F81
:104E2000FF7FFF8FC79FCF9FDF9FDFBFFF9FFFBF2A
:104E3000DF9FFF8F8F9F8F8F9F9005BF9F9FBF9F8B
:104E4000BFF8F8E8F0E0F0F0F0E1EFFF9006F0F8DE
:104E5000F0F0F0E0E0E0F0E0FF90067F3F1F1F0081
:104E60001F0000D0E0FEF4FCFFFFFF7F3F90040036
:104E70009005FCF8FFFEFFFFC0C0C0E020C000901E
:104E80000AE0C0C0E0E000900A80060F0E0E0E0798
:104E900090040F0F07030F0703060E060F070F07F7
:104EA0000F0F070F079004031F3F1F3F3F9FDFFFB8
:104EB000EFDFFF90063F3F1F3F3F1FDF9FFF900840
:104EC0008080820086841C0C38D8B8F8FCF8FAFC84
:104ED000008000808804089898B8F8F8FCF8FCFC7A
:104EE0007F9005FF7F7FFF7F3F3F7F7F7F3F7FFF7B
:104EF0007FFFFF7FFF7F90063F3F3FC0C0E0C0F0D5
:104F0000E0E0F0F0E0F8F8FCF8FEFDE09006F0E0FC
:104F1000F0F0F8F0FCF8FCFE00900A030100050038
:104F2000900D0101020000080919182B335179A3D3
:104F300077E78F8F2F7FBF0C04080D19193333F3D8
:104F40006787CF1F1F3F7FFEFCFEFCFEFCFEFCFEC2
:104F5000FCFEFCFEFCFEFCFCFEFCFEFCFEFCFEFC83
:104F6000FEFCFEFCFEFCFE0F90101F0F1F0F1F0F1C
:104F70001F0F1F0F1F0F1F0F1F0FEFDFEFDFEFDFE1
:104F8000EFDFEFDFEFDFEFDFEFDFDFFFDFFFDFFF81
:104F9000DFFFDFFFDFFFDFFFDFFFC2C1C7C3C7C720
:104FA000DF9004FFDFFFFFFFDFC3C1C3C7C7CF90A0
:104FB00004DF9005FFDFFF9006F5F7E1D1C0E08048
:104FC00080C080FF9006FBFFE1E0C0900480C0C17C
:104FD000F0F1F0F9F8FDF8FDFEFD0201000100F02E
:104FE000E1F0F9FCF9FCFDFEFD7CFF00010001FE93
:104FF000FCFEFCFEFCFFFDFCFDFDFF9005FC9008A7
:10500000FFFDFF90061F3F7F3F7F7FFFFFFCFEF805
:10501000FCF8FCFCFC3F1F7F3FFF7FFEFFFCFEF81F
:10502000FCF8FCFEFCD3C3AF8FCF8F3F1F3F900433
:105030001F3F3F3FE3E7C7CF0F9F1F1F3F1F1F3F8C
:105040009005FF9009F787C783C10381FF9008D7B8
:10505000EF83C381838381F8FCF8FCF8FDFAFDFB44
:10506000FFFBFDFFFFFBFBFCF8FCF8FDF8FDF9FF83
:10507000F9FFFBFFFBFBFF5F3FFF9005FEF8FCF035
:10508000F8F8F7FFFF7F3FFF7FFFFFFEFCFCF8F81B
:10509000F8FFF8FFFFFAFEFEFFFFFFDF3F1F1F1FB5
:1050A0000F1FEFFFFFFEFCFEFFFFFF7F3F3F1F1FB5
:1050B0001FFF1FFFFFFE7E3F7E7F7FFFFF9FBFDF43
:1050C0009FFFCFDFFFFE7F9004BFBFBF9FFFFFDFCB
:1050D0009004CF030707070F87878F8F8FCF8FDF4E
:1050E0008F8FDF0703030707078F07078F8F8FDF78
:1050F0008F8FDFF8F8E0E0E0F0C0E0C0C0C0E0C0B3
:10510000C08080F09005E0E0E0C0E0C0C080C0C09A
:10511000807F9011FF7FFF7FFF7FFF7FFF7FFF7FFB
:10512000FF7FFFBFFF9FDF9FDFBFFF9FFFBFDFBF8F
:10513000FF9FDF9FBF90059FBF9FBF9FBFBF9FBFC8
:105140009FFFFFFCFFFCF4E8F0E0F0E0F0E0E0F0AF
:10515000E0FF9004F8F8F0F0F0E09007FF90047F93
:10516000FF1F90070F1F0FFF90043F7F3F3F3F1F20
:105170009007C0C0E09005F0E0F0F0E0E0F0E0F073
:10518000C080C0C0C0E0E0E0F0E0E0F0E0F0E0F0BF
:1051900003030001010060002808181E0F1E071FEE
:1051A00003010001000060003030381C0E1F0F0F9B
:1051B000FF90047F7F3FFF1F7F1F2FFFEFFF9008AF
:1051C0007F7F3F3F1F1FEF1FFFFFFCFEFEFF900D85
:1051D000FCFEFF900E1F3FDF9FFF900C1F3F3FFF25
:1051E000900D473CFF9008FEFEFF9004BDC3FF906A
:1051F000160F7F030F01858180FF9008AFDF0F0737
:1052000003038001FEFEFC9005F0F8E1D0C0C080F1
:10521000FF00FEFFFDFEF9FCF9F8F0F0E0E080C0D1
:1052200080FFFEFCFEFCFEFEFF90067FFFFFFFFC02
:10523000FEFCFEFCFEFEFEFF90047FFF7FFF0F0FD3
:105240000F1F0F1F1F1F7F3FFF90061F0F1F0F0F06
:105250001F3F1FFF9008EFDFEFDFEFDFEFDFEFDF34
:10526000EFDFEFDFFFDFDFFFDFFFDFFFDFFFDFFF6E
:10527000DFFFDFFFFFFFDFFFFFDFDFDFFFDF900587
:10528000C7C7FBC7FFDFFFDFFFDFDFDFCFDFCFCF2A
:10529000C7CFC7FF809004C0C0C0E0F3D1F7FBFFC9
:1052A000900480C080C080C0C0C0E0E1FF900601D3
:1052B00000010001027FFCFFFCF9FCF9FCF7F8009B
:1052C000010001827DFCFFFEFDFCFDFCF9F9FF9071
:1052D00008FEFEFCFEFCFEFCFFFCFF9007FEFEFC51
:1052E0009006FFFEFCFFFF7EFF3F3F7F7F1F3F1FBB
:1052F0003FEF1FFEFEFFFE7FFF7F7F3F3F1F3F1FF1
:105300001F1FFF7F3F3F3F9F3F3FBFFFFF9FBFDF0D
:10531000EFCFFF3F90061FBFBF9FDFDFEFDFEFFF45
:10532000810101818183C383A3E3F7EFFF900483AD
:105330008183818381C183C3C7FF9006FB9004F9F9
:10534000FFFBFFFBFDF8FCF8FDFFFCFBFFFBFFFF95
:10535000FBFDFBFFF9FDF9FCF8F8FFFFFFF8FFF09C
:10536000F0FCF8FCFCFEFC7FFF7F7FFF9004F890D0
:1053700005FCFEFF900700FF0000100F1F3FFF908D
:1053800004FEFF90050090043F1FBF7FFF9005EFD4
:1053900027EF0F0F03C3C3C785C30381FF03CFCF1D
:1053A000C7CF07900487C38383810301FF8FDFFF8B
:1053B000FFFEFFFFFEFEFFFEFEFEFCFFFCDFDFFF49
:1053C000DFFFFFFEFFFEFEFCFEFEFCFCFF80008018
:1053D0008080009009FF0080808000900CFF7F900B
:1053E00011FF7FFF7FFF7FFF7FFF7FFF7FFFFFFFBB
:1053F000BFDF8FCF8FDF87CF8FC783C783C3BFC187
:105400009F90058F9004878387818381FFE0F0F070
:10541000F0E8F0F8F4FDFDFF9006E0E0F0E0F0F0D9
:10542000F8F8FEFF90070F1F1F3F3F1F7F7F7FFF92
:1054300090071F90053F7F3FFF9008F0E0E0F0E00D
:10544000F0C0900480C08080E010E0F0F0E09006B2
:10545000C080C0008000E00F0F0703060200900A22
:105460000F070707030100900AFF90069F5F140CC7
:10547000009006FF90067F3F0B07009006FF900804
:10548000009008FF900A009008C08080C0C1C06FE3
:10549000C3EF5FF07A4010809004C08080C0C5C325
:1054A000CE7F787C70603F7F7F3F2F3FFFBF80C003
:1054B00080009005FF7F1F3F1F1FFF7FFFFF8000C1
:1054C0009005E090081010009006F0E0F0E0F0E0A9
:1054D000F0E0E0E00090064000901F1F7C630C8528
:1054E00014E71C29256B2DAC31EF3D1146724A950E
:1054F00056F75E39677A6BBD77FF7F0090460100F3
:105500000200030004000500060007000800902DBB
:1055100009000A000B000C000D000E000F00100027
:10552000110012001300901D140015001600170042
:10553000180019001A001B001C001D001E001F008F
:105540002000210000002200230024002500260066
:105550002700280029002A002B002C002D002E00F7
:105560002F003000310032003300340035003600A7
:105570003700380039003A001D001D001D003B00B7
:105580003C003D003E003F001D0040004100420045
:1055900043004400450046004700480049004A00D7
:1055A0004B004C004D004E004F0050005100520087
:1055B00053005400550056001D001D001D005700EB
:1055C00058001D0059005A005B005C005D005E0041
:1055D0005F006000610062006300640065006600B7
:1055E0006700680069006A006B006C006D006E0067
:1055F0006F0070007100720073007300730073001D
:1056000073007300730074007500730073007300FF
:1056100073007300730073007300730073007300F2
:1056200073007300730073007300730073007300E2
:10563000730076009013770090FF0090FF00902F8A
:10564000F3570009F3600000F3600000F36000907E
:10565000142D367E7F7D266A4CFDFEFA4C4C009060
:1056600005DAECD4F828F0DA7CBADC4498AACC54F9
:10567000F8A870FAFCFC20FAFCEC30102000900630
:105680001018383C341818000000383C5C666A0C6E
:1056900014181018180010181800000050785078CE
:1056A0007800900B707850787078780090072030F0
:1056B000FCFEEC36243624365466AACCCC002030CE
:1056C000FCFEEE303018FCFEF618180C0C007C7E48
:1056D0005C664466A4C6CA0C080C343838004060C6
:1056E0007C7E5A6CA8CCC80C1418283030000000FE
:1056F000F8FCF80C080C080C080CF8FCFC00486CD2
:10570000FCFEDA6C486C680C14182830300000007D
:10571000C4E6E406C4E6EA0C1418E8F0F000F8FC6D
:10572000F80C080C14183038586CACC6C600406031
:10573000FEFFDE634D6E4E6042637D3E3E0084C6DA
:10574000C46644666A0C080C1418687070007C7E8D
:105750005C664466B4FEFA0C141828303000040667
:105760003A3C380CFEFFFB0C080C14181800040619
:10577000A4F6A4F6FA0C080C141868707000FCFE6D
:10578000FE00FCFEF618101810182830300040609B
:10579000406040606070587C5C6040606000101841
:1057A000FCFEF618101810182830D0E0E0000000B9
:1057B000787C7C009007FCFEFE00F8FCF80C080CDE
:1057C00054787038283CD8ECEC002030F8FCF80C09
:1057D0001418787CACF6E6303000080C080C080C85
:1057E0001418101828305060600010181018586CE9
:1057F000486CACC684C6C406060080C080C0F8FCF5
:10580000BCC080C080C0F8FCFC00FCFEFC060406A6
:1058100004060A0C1418687070002030587CBCC64E
:10582000C60090091018FCFEF6181018547EB6DB5E
:1058300092DBDB00FCFEFC060406DAFCEC70603058
:1058400030181800E0F0FC1EEEF0FC1E1E00E0F028
:10585000FC1E1E0010181018283020305466FEFF61
:10586000BEC3C300040604064A6C683C3418283CD6
:10587000DCE6E600FCFEEE302030FCFEEE302030B0
:105880003C3E3E004060FEFFEE33253626303018A9
:10589000101818000000787C780C080C080C080C14
:1058A000FCFEFE007C7E7C0604067C7E7C060406F4
:1058B0007C7E7E00787C7C00FCFEFC0604060A0CE4
:1058C00034383800446644664466446664060A0C0C
:1058D00014181800101850785078527B527B557E5F
:1058E000DAFCFC00406040604060446644665A7CDC
:1058F0006C7070000000FCFEBCC684C684C684C602
:10590000FCFEFE000000FCFEBCC6C40604060A0C39
:10591000343838000000E4F6F406040604060A0CE5
:10592000F4F8F8009005383C3C063C3E5C667C3E52
:105930003E0040604060787C5C66446644667A7CE9
:105940007C009005383C5C66466044667A3C3C00CE
:10595000040604063C3E5C66446644667C3E3E00AB
:105960009005383C5C667A7C5C607C3E3E001C1E88
:105970002E3020307C7E6E3020302030300090057C
:105980003C3E5C667C3E3C067A7C7C00406040602D
:10599000787C5C66446644664466660010181800AD
:1059A0003038301810181018383C3C00080C0C0027
:1059B000181C180C080C080C343838004060406083
:1059C000486C547868705078586C6C0030383018D7
:1059D0001018101810181018383C3C009005787CEE
:1059E000547E547E547E547E7E009005787C5C66A6
:1059F00044664466446666009005383C5C664466CE
:105A000044667A3C3C009005787C5C6644667A7C0F
:105A10005C60600090053C3E5C6644667C3E3C06F3
:105A200006009005587C6C765660406040606000CF
:105A300090053C3E5E60783C3C067A7C7C002030E1
:105A40002030787C6C3020302030381C1C009005D1
:105A500044664466446644667A3C3C00900544666D
:105A6000446644666A3C34181800900544664466EF
:105A7000547E6A3C283C3C00900544666A3C3418DD
:105A8000283C5C6666009005446644667C3E3C06A5
:105A90007A7C7C0090057C7E7A0C141828307C7E01
:105AA0007E009005101828305060603030181800C3
:105AB00090054060603030182830506020400090E1
:105AC00006F0F8F800F0F8F8000000383C3C202020
:105AD00030203020302030383C3C00383C380C0836
